{"abi":[{"type":"constructor","inputs":[{"name":"_feeToSetter","type":"address","internalType":"address"},{"name":"_creationFee","type":"uint256","internalType":"uint256"},{"name":"_weth","type":"address","internalType":"contract IWETH"},{"name":"_nfpm","type":"address","internalType":"address"},{"name":"_uFactory","type":"address","internalType":"address"},{"name":"_total_Trade_Volume","type":"uint256","internalType":"uint256"}],"stateMutability":"nonpayable"},{"type":"receive","stateMutability":"payable"},{"type":"function","name":"CREATION_FEE","inputs":[],"outputs":[{"name":"","type":"uint256","internalType":"uint256"}],"stateMutability":"view"},{"type":"function","name":"allPairs","inputs":[{"name":"","type":"uint256","internalType":"uint256"}],"outputs":[{"name":"","type":"address","internalType":"address"}],"stateMutability":"view"},{"type":"function","name":"allPairsLength","inputs":[],"outputs":[{"name":"","type":"uint256","internalType":"uint256"}],"stateMutability":"view"},{"type":"function","name":"createTokensAndPair","inputs":[{"name":"name","type":"string","internalType":"string"},{"name":"symbol","type":"string","internalType":"string"},{"name":"_metadataURI","type":"string","internalType":"string"},{"name":"minExpected","type":"uint256","internalType":"uint256"},{"name":"buy","type":"bool","internalType":"bool"}],"outputs":[{"name":"moonupErc20","type":"address","internalType":"address"},{"name":"moonUpProxy","type":"address","internalType":"address"}],"stateMutability":"payable"},{"type":"function","name":"feeToSetter","inputs":[],"outputs":[{"name":"","type":"address","internalType":"address"}],"stateMutability":"view"},{"type":"function","name":"getMoonUpTokenPair","inputs":[{"name":"Token","type":"address","internalType":"address"}],"outputs":[{"name":"","type":"address","internalType":"address"}],"stateMutability":"view"},{"type":"function","name":"implementation","inputs":[],"outputs":[{"name":"","type":"address","internalType":"address"}],"stateMutability":"view"},{"type":"function","name":"owner","inputs":[],"outputs":[{"name":"","type":"address","internalType":"address"}],"stateMutability":"view"},{"type":"function","name":"renounceOwnership","inputs":[],"outputs":[],"stateMutability":"nonpayable"},{"type":"function","name":"setCreationFeeSetter","inputs":[{"name":"_feeToSetter","type":"address","internalType":"address"}],"outputs":[],"stateMutability":"nonpayable"},{"type":"function","name":"setCreationFeeTo","inputs":[{"name":"_feeTo","type":"uint256","internalType":"uint256"}],"outputs":[],"stateMutability":"nonpayable"},{"type":"function","name":"transferOwnership","inputs":[{"name":"newOwner","type":"address","internalType":"address"}],"outputs":[],"stateMutability":"nonpayable"},{"type":"function","name":"upgradeTo","inputs":[{"name":"newImplementation","type":"address","internalType":"address"}],"outputs":[],"stateMutability":"nonpayable"},{"type":"function","name":"withdrawFees","inputs":[],"outputs":[],"stateMutability":"nonpayable"},{"type":"event","name":"MoonUpBeaconFactory__TokensCreated","inputs":[{"name":"MoonUpTokenPair","type":"address","indexed":false,"internalType":"address"},{"name":"MoonUpErc20","type":"address","indexed":false,"internalType":"address"}],"anonymous":false},{"type":"event","name":"OwnershipTransferred","inputs":[{"name":"previousOwner","type":"address","indexed":true,"internalType":"address"},{"name":"newOwner","type":"address","indexed":true,"internalType":"address"}],"anonymous":false},{"type":"event","name":"Upgraded","inputs":[{"name":"implementation","type":"address","indexed":true,"internalType":"address"}],"anonymous":false},{"type":"error","name":"BeaconInvalidImplementation","inputs":[{"name":"implementation","type":"address","internalType":"address"}]},{"type":"error","name":"OwnableInvalidOwner","inputs":[{"name":"owner","type":"address","internalType":"address"}]},{"type":"error","name":"OwnableUnauthorizedAccount","inputs":[{"name":"account","type":"address","internalType":"address"}]}],"bytecode":{"object":"0x60806040526b033b2e3c9fd0803ce80000006002819055600b80546001600160a01b03199081166aa56fa5b99019a5c800000017909155600c8054909116674563918244f40000179055600d556a18d0bf423c03d8de000000600e55600f80546001600160401b0319166401ca7f4ceb17905534801561007e57600080fd5b5060405161363138038061363183398101604081905261009d91610264565b6100a561013f565b3380806100cd57604051631e4fbdf760e01b8152600060048201526024015b60405180910390fd5b6100d68161016f565b506100e0826101bf565b5050600394909455600480546001600160a01b039687166001600160a01b031991821617909155600780549487169482169490941790935560088054928616928416929092179091556009805491909416911617909155600a556102da565b600060405161014d9061023f565b604051809103906000f080158015610169573d6000803e3d6000fd5b50905090565b600080546001600160a01b038381166001600160a01b0319831681178455604051919092169283917f8be0079c531659141344cd1fd0a4f28419497f9722a3daafe3b4186f6b6457e09190a35050565b806001600160a01b03163b6000036101f55760405163211eb15960e21b81526001600160a01b03821660048201526024016100c4565b600180546001600160a01b0319166001600160a01b0383169081179091556040517fbc7cd75a20ee27fd9adebab32041f755214dbc6bffa90cc0225b39da2e5c2d3b90600090a250565b6113e88061224983390190565b6001600160a01b038116811461026157600080fd5b50565b60008060008060008060c0878903121561027d57600080fd5b86516102888161024c565b6020880151604089015191975095506102a08161024c565b60608801519094506102b18161024c565b60808801519093506102c28161024c565b60a09790970151959894975092959194919391925050565b611f60806102e96000396000f3fe6080604052600436106100e15760003560e01c80636bdd12641161007f578063b4effb8511610059578063b4effb851461022b578063baa3d5a21461025e578063ca9991b814610297578063f2fde38b146102b757600080fd5b80636bdd1264146101d8578063715018a6146101f85780638da5cb5b1461020d57600080fd5b8063476343ee116100bb578063476343ee1461016c57806349a2104d14610181578063574f2ba3146101a55780635c60da1b146101ba57600080fd5b8063094b7415146100ed5780631e3dd18b1461012a5780633659cfe61461014a57600080fd5b366100e857005b600080fd5b3480156100f957600080fd5b5060045461010d906001600160a01b031681565b6040516001600160a01b0390911681526020015b60405180910390f35b34801561013657600080fd5b5061010d610145366004610950565b6102d7565b34801561015657600080fd5b5061016a610165366004610969565b610301565b005b34801561017857600080fd5b5061016a610315565b34801561018d57600080fd5b5061019760035481565b604051908152602001610121565b3480156101b157600080fd5b50600554610197565b3480156101c657600080fd5b506001546001600160a01b031661010d565b3480156101e457600080fd5b5061016a6101f3366004610969565b6103b9565b34801561020457600080fd5b5061016a610429565b34801561021957600080fd5b506000546001600160a01b031661010d565b61023e610239366004610a3e565b61043d565b604080516001600160a01b03938416815292909116602083015201610121565b34801561026a57600080fd5b5061010d610279366004610969565b6001600160a01b039081166000908152600660205260409020541690565b3480156102a357600080fd5b5061016a6102b2366004610950565b610650565b3480156102c357600080fd5b5061016a6102d2366004610969565b6106a3565b600581815481106102e757600080fd5b6000918252602090912001546001600160a01b0316905081565b6103096106de565b6103128161070b565b50565b61031d6106de565b600080546040516001600160a01b039091169047908381818185875af1925050503d806000811461036a576040519150601f19603f3d011682016040523d82523d6000602084013e61036f565b606091505b50509050806103125760405162461bcd60e51b815260206004820152601160248201527015da5d1a191c985dd85b0819985a5b1959607a1b60448201526064015b60405180910390fd5b6000546001600160a01b031633146104075760405162461bcd60e51b815260206004820152601160248201527026b7b7b72aa81d102327a92124a22222a760791b60448201526064016103b0565b600480546001600160a01b0319166001600160a01b0392909216919091179055565b6104316106de565b61043b600061078b565b565b60008060006003543410156104945760405162461bcd60e51b815260206004820152601f60248201527f4e6f7420656e6f7567682065746820666f72206372656174696f6e206665650060448201526064016103b0565b8787876040516104a390610936565b6104af93929190610b46565b604051809103906000f0801580156104cb573d6000803e3d6000fd5b5092506104d7836107db565b91506104e382846108cb565b8315156001036105a3576003546104fa9034610b89565b90506000826001600160a01b0316828760405160240161051c91815260200190565b60408051601f198184030181529181526020820180516001600160e01b0316636cb504a560e11b179052516105519190610bb0565b60006040518083038185875af1925050503d806000811461058e576040519150601f19603f3d011682016040523d82523d6000602084013e610593565b606091505b50509050806105a157600080fd5b505b6001600160a01b03838116600081815260066020908152604080832080549588166001600160a01b031996871681179091556005805460018101825594527f036b6384b5eca791c62761152d0c79bb0604c104a5fb6f4eb0703f3154bb3db09093018054909516831790945583519182528101919091527fcdad20d1afb7a49e10c9157d520846fd786654c93f94fdbfbeca6ff8f92dfb0b910160405180910390a1509550959350505050565b6004546001600160a01b0316331461069e5760405162461bcd60e51b815260206004820152601160248201527026b7b7b72ab81d102327a92124a22222a760791b60448201526064016103b0565b600355565b6106ab6106de565b6001600160a01b0381166106d557604051631e4fbdf760e01b8152600060048201526024016103b0565b6103128161078b565b6000546001600160a01b0316331461043b5760405163118cdaa760e01b81523360048201526024016103b0565b806001600160a01b03163b6000036107415760405163211eb15960e21b81526001600160a01b03821660048201526024016103b0565b600180546001600160a01b0319166001600160a01b0383169081179091556040517fbc7cd75a20ee27fd9adebab32041f755214dbc6bffa90cc0225b39da2e5c2d3b90600090a250565b600080546001600160a01b038381166001600160a01b0319831681178455604051919092169283917f8be0079c531659141344cd1fd0a4f28419497f9722a3daafe3b4186f6b6457e09190a35050565b600754600854600954600a54600b54600c54600d54600e54600f54604080516001600160a01b038c811660248301529a8b166044820152988a1660648a0152968916608489015260a488019590955292871660c4870152951660e485015261010484019490945261012483019390935267ffffffffffffffff909216610144808301919091528251808303909101815261016490910182526020810180516001600160e01b0316637a8e4a6f60e11b1790529051600091309161089d90610943565b6108a8929190610bcc565b604051809103906000f0801580156108c4573d6000803e3d6000fd5b5092915050565b6002546040516340c10f1960e01b81526001600160a01b0384811660048301526024820192909252908216906340c10f1990604401600060405180830381600087803b15801561091a57600080fd5b505af115801561092e573d6000803e3d6000fd5b505050505050565b610d6d80610bf983390190565b6105c58061196683390190565b60006020828403121561096257600080fd5b5035919050565b60006020828403121561097b57600080fd5b81356001600160a01b038116811461099257600080fd5b9392505050565b634e487b7160e01b600052604160045260246000fd5b600082601f8301126109c057600080fd5b813567ffffffffffffffff8111156109da576109da610999565b604051601f8201601f19908116603f0116810167ffffffffffffffff81118282101715610a0957610a09610999565b604052818152838201602001851015610a2157600080fd5b816020850160208301376000918101602001919091529392505050565b600080600080600060a08688031215610a5657600080fd5b853567ffffffffffffffff811115610a6d57600080fd5b610a79888289016109af565b955050602086013567ffffffffffffffff811115610a9657600080fd5b610aa2888289016109af565b945050604086013567ffffffffffffffff811115610abf57600080fd5b610acb888289016109af565b9350506060860135915060808601358015158114610ae857600080fd5b809150509295509295909350565b60005b83811015610b11578181015183820152602001610af9565b50506000910152565b60008151808452610b32816020860160208601610af6565b601f01601f19169290920160200192915050565b606081526000610b596060830186610b1a565b8281036020840152610b6b8186610b1a565b90508281036040840152610b7f8185610b1a565b9695505050505050565b81810381811115610baa57634e487b7160e01b600052601160045260246000fd5b92915050565b60008251610bc2818460208701610af6565b9190910192915050565b6001600160a01b0383168152604060208201819052600090610bf090830184610b1a565b94935050505056fe608060405234801561001057600080fd5b50604051610d6d380380610d6d83398101604081905261002f916101a6565b338383600361003e83826102c4565b50600461004b82826102c4565b5050506001600160a01b03811661007c57604051631e4fbdf760e01b81526000600482015260240160405180910390fd5b6100858161009b565b50600661009282826102c4565b50505050610382565b600580546001600160a01b038381166001600160a01b0319831681179093556040519116919082907f8be0079c531659141344cd1fd0a4f28419497f9722a3daafe3b4186f6b6457e090600090a35050565b634e487b7160e01b600052604160045260246000fd5b600082601f83011261011457600080fd5b81516001600160401b0381111561012d5761012d6100ed565b604051601f8201601f19908116603f011681016001600160401b038111828210171561015b5761015b6100ed565b60405281815283820160200185101561017357600080fd5b60005b8281101561019257602081860181015183830182015201610176565b506000918101602001919091529392505050565b6000806000606084860312156101bb57600080fd5b83516001600160401b038111156101d157600080fd5b6101dd86828701610103565b602086015190945090506001600160401b038111156101fb57600080fd5b61020786828701610103565b604086015190935090506001600160401b0381111561022557600080fd5b61023186828701610103565b9150509250925092565b600181811c9082168061024f57607f821691505b60208210810361026f57634e487b7160e01b600052602260045260246000fd5b50919050565b601f8211156102bf57806000526020600020601f840160051c8101602085101561029c5750805b601f840160051c820191505b818110156102bc57600081556001016102a8565b50505b505050565b81516001600160401b038111156102dd576102dd6100ed565b6102f1816102eb845461023b565b84610275565b6020601f821160018114610325576000831561030d5750848201515b600019600385901b1c1916600184901b1784556102bc565b600084815260208120601f198516915b828110156103555787850151825560209485019460019092019101610335565b50848210156103735786840151600019600387901b60f8161c191681555b50505050600190811b01905550565b6109dc806103916000396000f3fe608060405234801561001057600080fd5b50600436106100f55760003560e01c806370a08231116100975780639dc29fac116100665780639dc29fac146101e0578063a9059cbb146101f3578063dd62ed3e14610206578063f2fde38b1461023f57600080fd5b806370a082311461018c578063715018a6146101b55780638da5cb5b146101bd57806395d89b41146101d857600080fd5b806318160ddd116100d357806318160ddd1461014357806323b872dd14610155578063313ce5671461016857806340c10f191461017757600080fd5b806303ee438c146100fa57806306fdde0314610118578063095ea7b314610120575b600080fd5b610102610252565b60405161010f9190610825565b60405180910390f35b6101026102e0565b61013361012e36600461088f565b610372565b604051901515815260200161010f565b6002545b60405190815260200161010f565b6101336101633660046108b9565b61038c565b6040516012815260200161010f565b61018a61018536600461088f565b6103b0565b005b61014761019a3660046108f6565b6001600160a01b031660009081526020819052604090205490565b61018a6103c6565b6005546040516001600160a01b03909116815260200161010f565b6101026103da565b61018a6101ee36600461088f565b6103e9565b61013361020136600461088f565b6103fb565b610147610214366004610918565b6001600160a01b03918216600090815260016020908152604080832093909416825291909152205490565b61018a61024d3660046108f6565b610409565b6006805461025f9061094b565b80601f016020809104026020016040519081016040528092919081815260200182805461028b9061094b565b80156102d85780601f106102ad576101008083540402835291602001916102d8565b820191906000526020600020905b8154815290600101906020018083116102bb57829003601f168201915b505050505081565b6060600380546102ef9061094b565b80601f016020809104026020016040519081016040528092919081815260200182805461031b9061094b565b80156103685780601f1061033d57610100808354040283529160200191610368565b820191906000526020600020905b81548152906001019060200180831161034b57829003601f168201915b5050505050905090565b60003361038081858561044c565b60019150505b92915050565b60003361039a85828561045e565b6103a58585856104dc565b506001949350505050565b6103b861053b565b6103c28282610568565b5050565b6103ce61053b565b6103d8600061059e565b565b6060600480546102ef9061094b565b6103f161053b565b6103c282826105f0565b6000336103808185856104dc565b61041161053b565b6001600160a01b03811661044057604051631e4fbdf760e01b8152600060048201526024015b60405180910390fd5b6104498161059e565b50565b6104598383836001610626565b505050565b6001600160a01b0383811660009081526001602090815260408083209386168352929052205460001981146104d657818110156104c757604051637dc7a0d960e11b81526001600160a01b03841660048201526024810182905260448101839052606401610437565b6104d684848484036000610626565b50505050565b6001600160a01b03831661050657604051634b637e8f60e11b815260006004820152602401610437565b6001600160a01b0382166105305760405163ec442f0560e01b815260006004820152602401610437565b6104598383836106fb565b6005546001600160a01b031633146103d85760405163118cdaa760e01b8152336004820152602401610437565b6001600160a01b0382166105925760405163ec442f0560e01b815260006004820152602401610437565b6103c2600083836106fb565b600580546001600160a01b038381166001600160a01b0319831681179093556040519116919082907f8be0079c531659141344cd1fd0a4f28419497f9722a3daafe3b4186f6b6457e090600090a35050565b6001600160a01b03821661061a57604051634b637e8f60e11b815260006004820152602401610437565b6103c2826000836106fb565b6001600160a01b0384166106505760405163e602df0560e01b815260006004820152602401610437565b6001600160a01b03831661067a57604051634a1406b160e11b815260006004820152602401610437565b6001600160a01b03808516600090815260016020908152604080832093871683529290522082905580156104d657826001600160a01b0316846001600160a01b03167f8c5be1e5ebec7d5bd14f71427d1e84f3dd0314c0f7b2291e5b200ac8c7c3b925846040516106ed91815260200190565b60405180910390a350505050565b6001600160a01b03831661072657806002600082825461071b9190610985565b909155506107989050565b6001600160a01b038316600090815260208190526040902054818110156107795760405163391434e360e21b81526001600160a01b03851660048201526024810182905260448101839052606401610437565b6001600160a01b03841660009081526020819052604090209082900390555b6001600160a01b0382166107b4576002805482900390556107d3565b6001600160a01b03821660009081526020819052604090208054820190555b816001600160a01b0316836001600160a01b03167fddf252ad1be2c89b69c2b068fc378daa952ba7f163c4a11628f55a4df523b3ef8360405161081891815260200190565b60405180910390a3505050565b602081526000825180602084015260005b818110156108535760208186018101516040868401015201610836565b506000604082850101526040601f19601f83011684010191505092915050565b80356001600160a01b038116811461088a57600080fd5b919050565b600080604083850312156108a257600080fd5b6108ab83610873565b946020939093013593505050565b6000806000606084860312156108ce57600080fd5b6108d784610873565b92506108e560208501610873565b929592945050506040919091013590565b60006020828403121561090857600080fd5b61091182610873565b9392505050565b6000806040838503121561092b57600080fd5b61093483610873565b915061094260208401610873565b90509250929050565b600181811c9082168061095f57607f821691505b60208210810361097f57634e487b7160e01b600052602260045260246000fd5b50919050565b8082018082111561038657634e487b7160e01b600052601160045260246000fdfea2646970667358221220b552f49c54e2687e3115baa5686eac644a71a23c9940676b01d45b103c9cf5a564736f6c634300081a003360a06040526040516105c53803806105c583398101604081905261002291610387565b61002c828261003e565b506001600160a01b0316608052610484565b610047826100fe565b6040516001600160a01b038316907f1cf3b03a6cf19fa2baba4df148e9dcabedea7f8a5c07840e207e5c089be95d3e90600090a28051156100f2576100ed826001600160a01b0316635c60da1b6040518163ffffffff1660e01b8152600401602060405180830381865afa1580156100c3573d6000803e3d6000fd5b505050506040513d601f19601f820116820180604052508101906100e7919061044d565b82610211565b505050565b6100fa610288565b5050565b806001600160a01b03163b60000361013957604051631933b43b60e21b81526001600160a01b03821660048201526024015b60405180910390fd5b807fa3f0ad74e5423aebfd80d3ef4346578335a9a72aeaee59ff6cb3582b35133d5080546001600160a01b0319166001600160a01b0392831617905560408051635c60da1b60e01b81529051600092841691635c60da1b9160048083019260209291908290030181865afa1580156101b5573d6000803e3d6000fd5b505050506040513d601f19601f820116820180604052508101906101d9919061044d565b9050806001600160a01b03163b6000036100fa57604051634c9c8ce360e01b81526001600160a01b0382166004820152602401610130565b6060600080846001600160a01b03168460405161022e9190610468565b600060405180830381855af49150503d8060008114610269576040519150601f19603f3d011682016040523d82523d6000602084013e61026e565b606091505b50909250905061027f8583836102a9565b95945050505050565b34156102a75760405163b398979f60e01b815260040160405180910390fd5b565b6060826102be576102b982610308565b610301565b81511580156102d557506001600160a01b0384163b155b156102fe57604051639996b31560e01b81526001600160a01b0385166004820152602401610130565b50805b9392505050565b8051156103185780518082602001fd5b604051630a12f52160e11b815260040160405180910390fd5b80516001600160a01b038116811461034857600080fd5b919050565b634e487b7160e01b600052604160045260246000fd5b60005b8381101561037e578181015183820152602001610366565b50506000910152565b6000806040838503121561039a57600080fd5b6103a383610331565b60208401519092506001600160401b038111156103bf57600080fd5b8301601f810185136103d057600080fd5b80516001600160401b038111156103e9576103e961034d565b604051601f8201601f19908116603f011681016001600160401b03811182821017156104175761041761034d565b60405281815282820160200187101561042f57600080fd5b610440826020830160208601610363565b8093505050509250929050565b60006020828403121561045f57600080fd5b61030182610331565b6000825161047a818460208701610363565b9190910192915050565b60805161012761049e6000396000601e01526101276000f3fe6080604052600a600c565b005b60186014601a565b60a0565b565b60007f00000000000000000000000000000000000000000000000000000000000000006001600160a01b0316635c60da1b6040518163ffffffff1660e01b8152600401602060405180830381865afa1580156079573d6000803e3d6000fd5b505050506040513d601f19601f82011682018060405250810190609b919060c3565b905090565b3660008037600080366000845af43d6000803e80801560be573d6000f35b3d6000fd5b60006020828403121560d457600080fd5b81516001600160a01b038116811460ea57600080fd5b939250505056fea2646970667358221220d9a1af329e78db7c4d78248916472996216b165bbfffaedccf70472b03bbc7b264736f6c634300081a0033a264697066735822122033258820e427165e72bdb45f8e8e17bcdc912990581c36359f7323c56500b74364736f6c634300081a00336080604052348015600f57600080fd5b506113c98061001f6000396000f3fe60806040526004361061009c5760003560e01c8063af31210e11610064578063af31210e1461014d578063d21b18131461016d578063d79875eb14610182578063d96a094a146101a2578063f51c94de146101b5578063fc0c546a146101d557600080fd5b80633fc8cef3146100a1578063476343ee146100de5780635104291c146100f557806398d5fdca14610123578063ae15821114610138575b600080fd5b3480156100ad57600080fd5b506001546100c1906001600160a01b031681565b6040516001600160a01b0390911681526020015b60405180910390f35b3480156100ea57600080fd5b506100f36101f5565b005b34801561010157600080fd5b50610115610110366004610eee565b610348565b6040519081526020016100d5565b34801561012f57600080fd5b50610115610362565b34801561014457600080fd5b506101156103c1565b34801561015957600080fd5b50610115610168366004610eee565b6103d3565b34801561017957600080fd5b506101156103e7565b34801561018e57600080fd5b506100f361019d366004610f07565b6103f4565b6100f36101b0366004610eee565b610637565b3480156101c157600080fd5b506100f36101d0366004610f3e565b61089a565b3480156101e157600080fd5b506000546100c1906001600160a01b031681565b600d5461010090046001600160a01b031633146102595760405162461bcd60e51b815260206004820152601c60248201527f4f6e6c79206f776e65722063616e20776974686472617720666565730000000060448201526064015b60405180910390fd5b600154600160a01b900460ff16156102aa5760405162461bcd60e51b815260206004820152601460248201527326b0b935b2ba1034b99039ba34b6361037b832b760611b6044820152606401610250565b600d5460405160009161010090046001600160a01b03169047908381818185875af1925050503d80600081146102fc576040519150601f19603f3d011682016040523d82523d6000602084013e610301565b606091505b50509050806103455760405162461bcd60e51b815260206004820152601060248201526f7472616e73666572206661696c65642160801b6044820152606401610250565b50565b6000610352610362565b61035c9083611016565b92915050565b600b54600090156103b057600354600a54600b5461038a9167ffffffffffffffff1690611016565b6103949190611043565b600a546103ab919067ffffffffffffffff16611057565b905090565b50600a5467ffffffffffffffff1690565b6000600b546003546103ab919061106a565b60006103dd610362565b61035c9083611043565b60006103ab6101106103c1565b600154600160a01b900460ff1661041e576040516308895a6160e11b815260040160405180910390fd5b8160000361043f576040516304625b0f60e31b815260040160405180910390fd5b81600061044b826103d3565b905060006103e861045d83600a611016565b6104679190611043565b90506000610475828461106a565b905084831015610498576040516302bccf3d60e01b815260040160405180910390fd5b6000546040516323b872dd60e01b8152336004820152306024820152604481018690526001600160a01b03909116906323b872dd906064016020604051808303816000875af11580156104ef573d6000803e3d6000fd5b505050506040513d601f19601f82011682018060405250810190610513919061107d565b508260026000828254610526919061106a565b9091555050336000908152600c60205260408120805486929061054a90849061106a565b9250508190555083600b6000828254610563919061106a565b9091555050604051600090339083908381818185875af1925050503d80600081146105aa576040519150601f19603f3d011682016040523d82523d6000602084013e6105af565b606091505b50509050806105f35760405162461bcd60e51b815260206004820152601060248201526f7472616e73666572206661696c65642160801b6044820152606401610250565b604080518581526020810187905233917fed7a144fad14804d5c249145e3e0e2b63a9eb455b76aee5bc92d711e9bba3e4a910160405180910390a250505050505050565b600154600160a01b900460ff16610661576040516308895a6160e11b815260040160405180910390fd5b34600003610682576040516304625b0f60e31b815260040160405180910390fd5b60006103e861069234600a611016565b61069c9190611043565b905060006106aa823461106a565b905060006106b782610348565b905080600354101561071d5760405162461bcd60e51b815260206004820152602960248201527f546f6b656e20416d6f756e742047726561746572207468616e20617661696c61604482015268313632902a37b5b2b760b91b6064820152608401610250565b8381101561073e576040516302bccf3d60e01b815260040160405180910390fd5b34600260008282546107509190611057565b9250508190555080600b60008282546107699190611057565b9091555050336000908152600c60205260408120805483929061078d908490611057565b9091555050600954336000908152600c602052604090205411156107c457604051635130dff360e11b815260040160405180910390fd5b60005460405163a9059cbb60e01b8152336004820152602481018390526001600160a01b039091169063a9059cbb906044016020604051808303816000875af1158015610815573d6000803e3d6000fd5b505050506040513d601f19601f82011682018060405250810190610839919061107d565b50604080518381526020810183905233917f1cbc5ab135991bd2b6a4b034a04aa2aa086dac1371cb9b16b8b5e2ed6b036bed910160405180910390a2600354600003610894576001805460ff60a01b19169055610894610990565b50505050565b600d5460ff1615156001036108c257604051633a2c37fd60e11b815260040160405180910390fd5b600080546001600160a01b03199081166001600160a01b039c8d1617909155600180546005805484169b8e169b909b17909a55600480548316998d1699909917909855600160a01b998b166001600160a81b03199099169890981798909817909555600393909355600d8054610100600160a81b03191661010033021790556006805486169288169290921790915560078054909416951694909417909155600892909255600991909155600a805467ffffffffffffffff191667ffffffffffffffff909216919091179055565b6753444835ec5800004710156109f75760405162461bcd60e51b815260206004820152602660248201527f496e73756666696369656e742062616c616e636520746f2061646420746f205560448201526506e69737761760d41b6064820152608401610250565b610a08674563918244f40000610cc3565b600454600080546001549192610a30926001600160a01b0391821692821691166101f4610d2f565b600654600754919250600091610a52916001600160a01b0390811691166110a6565b905060006060610a6183610dbb565b610a6c9060026110d5565b610a769190611227565b9050610a828382610e26565b6040805161016081018252600080546001600160a01b039081168352600154811660208401526101f493830193909352620d89e7196060830152620d89e86080830152600654831660a083015260075490921660c082015260e081018290526101008101829052306101208201526101408101610b00426064611057565b905260015460055460075460405163095ea7b360e01b81526001600160a01b0392831660048201529082166024820152929350169063095ea7b3906044016020604051808303816000875af1158015610b5d573d6000803e3d6000fd5b505050506040513d601f19601f82011682018060405250810190610b81919061107d565b5060005460055460065460405163095ea7b360e01b81526001600160a01b039283166004820152908216602482015291169063095ea7b3906044016020604051808303816000875af1158015610bdb573d6000803e3d6000fd5b505050506040513d601f19601f82011682018060405250810190610bff919061107d565b50600554600090610c19906001600160a01b031683610e69565b50506005546040516323b872dd60e01b815230600482015260006024820152604481018490529293506001600160a01b0316916323b872dd9150606401600060405180830381600087803b158015610c7057600080fd5b505af1158015610c84573d6000803e3d6000fd5b50506040516001600160a01b03881692507f2b1e37bc1165bf219bf005c57b4bd9edeac92a5690bbe16bafacb65f508ebfea9150600090a25050505050565b600160009054906101000a90046001600160a01b03166001600160a01b031663d0e30db0826040518263ffffffff1660e01b81526004016000604051808303818588803b158015610d1357600080fd5b505af1158015610d27573d6000803e3d6000fd5b505050505050565b60405163a167129560e01b81526001600160a01b038481166004830152838116602483015262ffffff831660448301526000919086169063a1671295906064016020604051808303816000875af1158015610d8e573d6000803e3d6000fd5b505050506040513d601f19601f82011682018060405250810190610db2919061123f565b95945050505050565b6000806002610dcb84600161125c565b610dd591906110a6565b90508291505b816001600160a01b0316816001600160a01b03161015610e2057905080600281610e0581866110a6565b610e0f919061125c565b610e1991906110a6565b9050610ddb565b50919050565b60405163f637731d60e01b81526001600160a01b03828116600483015283169063f637731d90602401600060405180830381600087803b158015610d1357600080fd5b600080600080856001600160a01b03166388316456866040518263ffffffff1660e01b8152600401610e9b919061127b565b6080604051808303816000875af1158015610eba573d6000803e3d6000fd5b505050506040513d601f19601f82011682018060405250810190610ede919061133f565b9299919850965090945092505050565b600060208284031215610f0057600080fd5b5035919050565b60008060408385031215610f1a57600080fd5b50508035926020909101359150565b6001600160a01b038116811461034557600080fd5b6000806000806000806000806000806101408b8d031215610f5e57600080fd5b8a35610f6981610f29565b995060208b0135610f7981610f29565b985060408b0135610f8981610f29565b975060608b0135610f9981610f29565b965060808b0135955060a08b0135610fb081610f29565b945060c08b0135610fc081610f29565b935060e08b013592506101008b013591506101208b013567ffffffffffffffff81168114610fed57600080fd5b809150509295989b9194979a5092959850565b634e487b7160e01b600052601160045260246000fd5b808202811582820484141761035c5761035c611000565b634e487b7160e01b600052601260045260246000fd5b6000826110525761105261102d565b500490565b8082018082111561035c5761035c611000565b8181038181111561035c5761035c611000565b60006020828403121561108f57600080fd5b8151801515811461109f57600080fd5b9392505050565b60006001600160a01b038316806110bf576110bf61102d565b6001600160a01b03929092169190910492915050565b6001600160a01b038181168382168181029092169181830481148215176110fe576110fe611000565b505092915050565b6001815b60018411156111415780850481111561112557611125611000565b600184161561113357908102905b60019390931c92800261110a565b935093915050565b6000826111585750600161035c565b816111655750600061035c565b816001811461117b5760028114611185576111b9565b600191505061035c565b60ff84111561119657611196611000565b6001841b91506001600160a01b038211156111b3576111b3611000565b5061035c565b5060208310610133831016604e8410600b84101617156111f3575081810a6001600160a01b038111156111ee576111ee611000565b61035c565b6112056001600160a01b038484611106565b6001600160a01b0381900482111561121f5761121f611000565b029392505050565b600061109f60ff84166001600160a01b038416611149565b60006020828403121561125157600080fd5b815161109f81610f29565b6001600160a01b03818116838216019081111561035c5761035c611000565b81516001600160a01b03168152610160810160208301516112a760208401826001600160a01b03169052565b5060408301516112be604084018262ffffff169052565b5060608301516112d3606084018260020b9052565b5060808301516112e8608084018260020b9052565b5060a083015160a083015260c083015160c083015260e083015160e083015261010083015161010083015261012083015161132f6101208401826001600160a01b03169052565b5061014092830151919092015290565b6000806000806080858703121561135557600080fd5b845160208601519094506fffffffffffffffffffffffffffffffff8116811461137d57600080fd5b604086015160609096015194979096509250505056fea26469706673582212208e18e7a3c2b7da8300be2da2f205f54c449ea64eeeb7d6f746bbca1f53f164c464736f6c634300081a0033","linkReferences":{}},"methodIdentifiers":{"CREATION_FEE()":"49a2104d","allPairs(uint256)":"1e3dd18b","allPairsLength()":"574f2ba3","createTokensAndPair(string,string,string,uint256,bool)":"b4effb85","feeToSetter()":"094b7415","getMoonUpTokenPair(address)":"baa3d5a2","implementation()":"5c60da1b","owner()":"8da5cb5b","renounceOwnership()":"715018a6","setCreationFeeSetter(address)":"6bdd1264","setCreationFeeTo(uint256)":"ca9991b8","transferOwnership(address)":"f2fde38b","upgradeTo(address)":"3659cfe6","withdrawFees()":"476343ee"},"id":34}