{"abi":[{"type":"function","name":"buy","inputs":[{"name":"minExpected","type":"uint256","internalType":"uint256"}],"outputs":[],"stateMutability":"payable"},{"type":"function","name":"getAvailableToken","inputs":[],"outputs":[{"name":"","type":"uint256","internalType":"uint256"}],"stateMutability":"view"},{"type":"function","name":"getEthQoute","inputs":[{"name":"amount","type":"uint256","internalType":"uint256"}],"outputs":[{"name":"","type":"uint256","internalType":"uint256"}],"stateMutability":"view"},{"type":"function","name":"getPrice","inputs":[],"outputs":[{"name":"","type":"uint256","internalType":"uint256"}],"stateMutability":"view"},{"type":"function","name":"getPriceOfAvailableTokens","inputs":[],"outputs":[{"name":"","type":"uint256","internalType":"uint256"}],"stateMutability":"view"},{"type":"function","name":"getTokenQoute","inputs":[{"name":"amount","type":"uint256","internalType":"uint256"}],"outputs":[{"name":"","type":"uint256","internalType":"uint256"}],"stateMutability":"view"},{"type":"function","name":"initialize","inputs":[{"name":"_token","type":"address","internalType":"address"},{"name":"_weth","type":"address","internalType":"contract IWETH"},{"name":"_nfpm","type":"address","internalType":"address"},{"name":"_uFactory","type":"address","internalType":"address"},{"name":"_total_Trade_Volume","type":"uint256","internalType":"uint256"},{"name":"Token_Liquidity","type":"uint160","internalType":"uint160"},{"name":"Eth_Liquidity","type":"uint160","internalType":"uint160"},{"name":"total_token_supply","type":"uint256","internalType":"uint256"},{"name":"percentage_holding","type":"uint256","internalType":"uint256"},{"name":"initialprice","type":"uint64","internalType":"uint64"}],"outputs":[],"stateMutability":"nonpayable"},{"type":"function","name":"sell","inputs":[{"name":"amount","type":"uint256","internalType":"uint256"},{"name":"minExpected","type":"uint256","internalType":"uint256"}],"outputs":[],"stateMutability":"nonpayable"},{"type":"function","name":"sqrt","inputs":[{"name":"x","type":"uint160","internalType":"uint160"}],"outputs":[{"name":"y","type":"uint160","internalType":"uint160"}],"stateMutability":"pure"},{"type":"function","name":"token","inputs":[],"outputs":[{"name":"","type":"address","internalType":"contract IERC20"}],"stateMutability":"view"},{"type":"function","name":"weth","inputs":[],"outputs":[{"name":"","type":"address","internalType":"contract IWETH"}],"stateMutability":"view"},{"type":"function","name":"withdrawToken","inputs":[],"outputs":[],"stateMutability":"nonpayable"},{"type":"event","name":"AmountGathered","inputs":[{"name":"amount","type":"uint256","indexed":true,"internalType":"uint256"}],"anonymous":false},{"type":"event","name":"Buy","inputs":[{"name":"buyer","type":"address","indexed":true,"internalType":"address"},{"name":"ethAmount","type":"uint256","indexed":false,"internalType":"uint256"},{"name":"tokenAmount","type":"uint256","indexed":false,"internalType":"uint256"}],"anonymous":false},{"type":"event","name":"Sell","inputs":[{"name":"seller","type":"address","indexed":true,"internalType":"address"},{"name":"ethAmount","type":"uint256","indexed":false,"internalType":"uint256"},{"name":"tokenAmount","type":"uint256","indexed":false,"internalType":"uint256"}],"anonymous":false},{"type":"event","name":"TokenWithdrawn","inputs":[{"name":"receiver","type":"address","indexed":true,"internalType":"address"},{"name":"amount","type":"uint256","indexed":true,"internalType":"uint256"},{"name":"sender","type":"address","indexed":false,"internalType":"address"}],"anonymous":false},{"type":"event","name":"UniswapPoolCreated","inputs":[{"name":"poolAddress","type":"address","indexed":true,"internalType":"address"}],"anonymous":false},{"type":"error","name":"MoonUpMarket__CANNOT_BUY_MORE_THAN_3_PERCENT","inputs":[]},{"type":"error","name":"MoonUpMarket__CANNOT_INITIALIZE_TWICE","inputs":[]},{"type":"error","name":"MoonUpMarket__FAILED_TRANSACTION","inputs":[]},{"type":"error","name":"MoonUpMarket__INVALID_AMOUNT","inputs":[]},{"type":"error","name":"MoonUpMarket__MARKET_CLOSED","inputs":[]}],"bytecode":{"object":"0x6080604052348015600f57600080fd5b506117078061001f6000396000f3fe6080604052600436106100a75760003560e01c8063ca628c7811610064578063ca628c7814610181578063d21b181314610198578063d79875eb146101ad578063d96a094a146101cd578063f51c94de146101e0578063fc0c546a1461020057600080fd5b80630fa4fc5f146100ac5780633fc8cef3146100e95780635104291c1461010957806398d5fdca14610137578063ae1582111461014c578063af31210e14610161575b600080fd5b3480156100b857600080fd5b506100cc6100c736600461120b565b610220565b6040516001600160a01b0390911681526020015b60405180910390f35b3480156100f557600080fd5b506001546100cc906001600160a01b031681565b34801561011557600080fd5b5061012961012436600461122f565b61028b565b6040519081526020016100e0565b34801561014357600080fd5b506101296102b7565b34801561015857600080fd5b50610129610316565b34801561016d57600080fd5b5061012961017c36600461122f565b610328565b34801561018d57600080fd5b5061019661034f565b005b3480156101a457600080fd5b50610129610542565b3480156101b957600080fd5b506101966101c8366004611248565b61054f565b6101966101db36600461122f565b61081b565b3480156101ec57600080fd5b506101966101fb36600461126a565b610b28565b34801561020c57600080fd5b506000546100cc906001600160a01b031681565b6000806002610230846001611342565b61023a9190611377565b90508291505b816001600160a01b0316816001600160a01b031610156102855790508060028161026a8186611377565b6102749190611342565b61027e9190611377565b9050610240565b50919050565b60006102956102b7565b61029f90836113a6565b6102b190670de0b6b3a76400006113ba565b92915050565b600a546000901561030557600254600954600a546102df9167ffffffffffffffff16906113ba565b6102e991906113a6565b600954610300919067ffffffffffffffff166113d1565b905090565b5060095467ffffffffffffffff1690565b6000600a5460025461030091906113e4565b6000670de0b6b3a764000061033b6102b7565b61034590846113ba565b6102b191906113a6565b600c5461010090046001600160a01b031633146103b35760405162461bcd60e51b815260206004820152601c60248201527f4f6e6c79206f776e65722063616e20776974686472617720666565730000000060448201526064015b60405180910390fd5b600154600160a01b900460ff16156104045760405162461bcd60e51b815260206004820152601460248201527326b0b935b2ba1034b99039ba34b6361037b832b760611b60448201526064016103aa565b600080546040516370a0823160e01b81523060048201526001600160a01b03909116906370a0823190602401602060405180830381865afa15801561044d573d6000803e3d6000fd5b505050506040513d601f19601f8201168201806040525081019061047191906113f7565b600054600c546040516323b872dd60e01b81523060048201526001600160a01b03610100909204821660248201526044810184905292935016906323b872dd906064016020604051808303816000875af11580156104d3573d6000803e3d6000fd5b505050506040513d601f19601f820116820180604052508101906104f79190611410565b50600c54604051308152829161010090046001600160a01b0316907fa0524ee0fd8662d6c046d199da2a6d3dc49445182cec055873a5bb9c2843c8e09060200160405180910390a350565b600061030061017c610316565b600154600160a01b900460ff16610579576040516308895a6160e11b815260040160405180910390fd5b8160000361059a576040516304625b0f60e31b815260040160405180910390fd5b600082905080600a60008282546105b191906113e4565b90915550600090506105c282610328565b905060006103e86105d483600a6113ba565b6105de91906113a6565b905060006105ec82846113e4565b600c546040519192506000916101009091046001600160a01b03169084908381818185875af1925050503d8060008114610642576040519150601f19603f3d011682016040523d82523d6000602084013e610647565b606091505b505090508061068a5760405162461bcd60e51b815260206004820152600f60248201526e151c985b9cd9995c8811985a5b1959608a1b60448201526064016103aa565b858410156106ab576040516302bccf3d60e01b815260040160405180910390fd5b6000546040516323b872dd60e01b8152336004820152306024820152604481018790526001600160a01b03909116906323b872dd906064016020604051808303816000875af1158015610702573d6000803e3d6000fd5b505050506040513d601f19601f820116820180604052508101906107269190611410565b50336000908152600b6020526040812080548792906107469084906113e4565b9091555050604051600090339084908381818185875af1925050503d806000811461078d576040519150601f19603f3d011682016040523d82523d6000602084013e610792565b606091505b50509050806107d65760405162461bcd60e51b815260206004820152601060248201526f7472616e73666572206661696c65642160801b60448201526064016103aa565b604080518681526020810188905233917fed7a144fad14804d5c249145e3e0e2b63a9eb455b76aee5bc92d711e9bba3e4a910160405180910390a25050505050505050565b600154600160a01b900460ff16610845576040516308895a6160e11b815260040160405180910390fd5b34600003610866576040516304625b0f60e31b815260040160405180910390fd5b60006103e861087634600a6113ba565b61088091906113a6565b600c546040519192506000916101009091046001600160a01b03169083908381818185875af1925050503d80600081146108d6576040519150601f19603f3d011682016040523d82523d6000602084013e6108db565b606091505b505090508061091e5760405162461bcd60e51b815260206004820152600f60248201526e151c985b9cd9995c8811985a5b1959608a1b60448201526064016103aa565b600061092a83346113e4565b905060006109378261028b565b905080600a5460025461094a91906113e4565b101561096357600a5460025461096091906113e4565b90505b84811015610984576040516302bccf3d60e01b815260040160405180910390fd5b80600a600082825461099691906113d1565b9091555050336000908152600b6020526040812080548392906109ba9084906113d1565b9091555050600854336000908152600b602052604090205411156109f157604051635130dff360e11b815260040160405180910390fd5b60005460405163a9059cbb60e01b8152336004820152602481018390526001600160a01b039091169063a9059cbb906044016020604051808303816000875af1158015610a42573d6000803e3d6000fd5b505050506040513d601f19601f82011682018060405250810190610a669190611410565b50610a7081610328565b341115610a8f576000610a8282610328565b610a8c90346113e4565b50505b604080518381526020810183905233917f1cbc5ab135991bd2b6a4b034a04aa2aa086dac1371cb9b16b8b5e2ed6b036bed910160405180910390a2600a54600254610ada91906113e4565b600003610b21576001805460ff60a01b1916905560405147907fdcfca910228ca08bb595ff3336d3a6da5b569710251eb18a9b4ceae146ab978c90600090a2610b21610c1e565b5050505050565b600c5460ff161515600103610b5057604051633a2c37fd60e11b815260040160405180910390fd5b600080546001600160a01b03199081166001600160a01b039c8d1617909155600180546004805484169b8e169b909b17909a55600380548316998d1699909917909855600160a01b998b166001600160a81b03199099169890981798909817909555600293909355600c8054610100600160a81b031916610100330217905560058054861692881692909217909155600680549094169516949094179091556007929092556008919091556009805467ffffffffffffffff191667ffffffffffffffff909216919091179055565b6753444835ec580000471015610c855760405162461bcd60e51b815260206004820152602660248201527f496e73756666696369656e742062616c616e636520746f2061646420746f205560448201526506e69737761760d41b60648201526084016103aa565b600a60006064610c9583476113ba565b610c9f91906113a6565b600c546040519192506000916101009091046001600160a01b03169083908381818185875af1925050503d8060008114610cf5576040519150601f19603f3d011682016040523d82523d6000602084013e610cfa565b606091505b5050905080610d4b5760405162461bcd60e51b815260206004820152601760248201527f5472616e73666572204e6f74205375636365737366756c00000000000000000060448201526064016103aa565b610d5c674563918244f40000611033565b600354600080546001549192610d84926001600160a01b0391821692821691166101f461109f565b600554909150600090670de0b6b3a764000090610daa906001600160a01b0316476113a6565b610db491906113a6565b905060006060610dc383610220565b610dce906002611432565b610dd89190611584565b9050610de4838261112b565b6040805161016081018252600080546001600160a01b039081168352600154811660208401526101f493830193909352620d89e7196060830152620d89e86080830152600554831660a083015260065490921660c082015260e081018290526101008101829052306101208201526101408101610e624260646113d1565b90526001546004805460065460405163095ea7b360e01b81526001600160a01b03928316938101939093528116602483015292935091169063095ea7b3906044016020604051808303816000875af1158015610ec2573d6000803e3d6000fd5b505050506040513d601f19601f82011682018060405250810190610ee69190611410565b506000546004805460055460405163095ea7b360e01b81526001600160a01b0392831693810193909352811660248301529091169063095ea7b3906044016020604051808303816000875af1158015610f43573d6000803e3d6000fd5b505050506040513d601f19601f82011682018060405250810190610f679190611410565b50600454600090610f81906001600160a01b03168361116e565b5050600480546040516323b872dd60e01b8152309281019290925260006024830152604482018490529293506001600160a01b03909216916323b872dd9150606401600060405180830381600087803b158015610fdd57600080fd5b505af1158015610ff1573d6000803e3d6000fd5b50506040516001600160a01b03881692507f2b1e37bc1165bf219bf005c57b4bd9edeac92a5690bbe16bafacb65f508ebfea9150600090a25050505050505050565b600160009054906101000a90046001600160a01b03166001600160a01b031663d0e30db0826040518263ffffffff1660e01b81526004016000604051808303818588803b15801561108357600080fd5b505af1158015611097573d6000803e3d6000fd5b505050505050565b60405163a167129560e01b81526001600160a01b038481166004830152838116602483015262ffffff831660448301526000919086169063a1671295906064016020604051808303816000875af11580156110fe573d6000803e3d6000fd5b505050506040513d601f19601f82011682018060405250810190611122919061159c565b95945050505050565b60405163f637731d60e01b81526001600160a01b03828116600483015283169063f637731d90602401600060405180830381600087803b15801561108357600080fd5b600080600080856001600160a01b03166388316456866040518263ffffffff1660e01b81526004016111a091906115b9565b6080604051808303816000875af11580156111bf573d6000803e3d6000fd5b505050506040513d601f19601f820116820180604052508101906111e3919061167d565b9299919850965090945092505050565b6001600160a01b038116811461120857600080fd5b50565b60006020828403121561121d57600080fd5b8135611228816111f3565b9392505050565b60006020828403121561124157600080fd5b5035919050565b6000806040838503121561125b57600080fd5b50508035926020909101359150565b6000806000806000806000806000806101408b8d03121561128a57600080fd5b8a35611295816111f3565b995060208b01356112a5816111f3565b985060408b01356112b5816111f3565b975060608b01356112c5816111f3565b965060808b0135955060a08b01356112dc816111f3565b945060c08b01356112ec816111f3565b935060e08b013592506101008b013591506101208b013567ffffffffffffffff8116811461131957600080fd5b809150509295989b9194979a5092959850565b634e487b7160e01b600052601160045260246000fd5b6001600160a01b0381811683821601908111156102b1576102b161132c565b634e487b7160e01b600052601260045260246000fd5b60006001600160a01b0383168061139057611390611361565b6001600160a01b03929092169190910492915050565b6000826113b5576113b5611361565b500490565b80820281158282048414176102b1576102b161132c565b808201808211156102b1576102b161132c565b818103818111156102b1576102b161132c565b60006020828403121561140957600080fd5b5051919050565b60006020828403121561142257600080fd5b8151801515811461122857600080fd5b6001600160a01b0381811683821681810290921691818304811482151761145b5761145b61132c565b505092915050565b6001815b600184111561149e578085048111156114825761148261132c565b600184161561149057908102905b60019390931c928002611467565b935093915050565b6000826114b5575060016102b1565b816114c2575060006102b1565b81600181146114d857600281146114e257611516565b60019150506102b1565b60ff8411156114f3576114f361132c565b6001841b91506001600160a01b038211156115105761151061132c565b506102b1565b5060208310610133831016604e8410600b8410161715611550575081810a6001600160a01b0381111561154b5761154b61132c565b6102b1565b6115626001600160a01b038484611463565b6001600160a01b0381900482111561157c5761157c61132c565b029392505050565b600061122860ff84166001600160a01b0384166114a6565b6000602082840312156115ae57600080fd5b8151611228816111f3565b81516001600160a01b03168152610160810160208301516115e560208401826001600160a01b03169052565b5060408301516115fc604084018262ffffff169052565b506060830151611611606084018260020b9052565b506080830151611626608084018260020b9052565b5060a083015160a083015260c083015160c083015260e083015160e083015261010083015161010083015261012083015161166d6101208401826001600160a01b03169052565b5061014092830151919092015290565b6000806000806080858703121561169357600080fd5b845160208601519094506fffffffffffffffffffffffffffffffff811681146116bb57600080fd5b604086015160609096015194979096509250505056fea2646970667358221220972aac44fdfca18c7a074064345174bf46f19d492aeae5524ed6ef61380258d364736f6c634300081a0033","linkReferences":{}},"methodIdentifiers":{"buy(uint256)":"d96a094a","getAvailableToken()":"ae158211","getEthQoute(uint256)":"af31210e","getPrice()":"98d5fdca","getPriceOfAvailableTokens()":"d21b1813","getTokenQoute(uint256)":"5104291c","initialize(address,address,address,address,uint256,uint160,uint160,uint256,uint256,uint64)":"f51c94de","sell(uint256,uint256)":"d79875eb","sqrt(uint160)":"0fa4fc5f","token()":"fc0c546a","weth()":"3fc8cef3","withdrawToken()":"ca628c78"},"id":35}