{"abi":[{"type":"function","name":"buy","inputs":[{"name":"minExpected","type":"uint256","internalType":"uint256"}],"outputs":[],"stateMutability":"payable"},{"type":"function","name":"getAvailableToken","inputs":[],"outputs":[{"name":"","type":"uint256","internalType":"uint256"}],"stateMutability":"view"},{"type":"function","name":"getEthQoute","inputs":[{"name":"amount","type":"uint256","internalType":"uint256"}],"outputs":[{"name":"","type":"uint256","internalType":"uint256"}],"stateMutability":"view"},{"type":"function","name":"getPrice","inputs":[],"outputs":[{"name":"","type":"uint256","internalType":"uint256"}],"stateMutability":"view"},{"type":"function","name":"getPriceOfAvailableTokens","inputs":[],"outputs":[{"name":"","type":"uint256","internalType":"uint256"}],"stateMutability":"view"},{"type":"function","name":"getTokenQoute","inputs":[{"name":"amount","type":"uint256","internalType":"uint256"}],"outputs":[{"name":"","type":"uint256","internalType":"uint256"}],"stateMutability":"view"},{"type":"function","name":"initialize","inputs":[{"name":"_token","type":"address","internalType":"address"},{"name":"_weth","type":"address","internalType":"contract IWETH"},{"name":"_nfpm","type":"address","internalType":"address"},{"name":"_uFactory","type":"address","internalType":"address"},{"name":"_total_Trade_Volume","type":"uint256","internalType":"uint256"},{"name":"Token_Liquidity","type":"uint160","internalType":"uint160"},{"name":"Eth_Liquidity","type":"uint160","internalType":"uint160"},{"name":"total_token_supply","type":"uint256","internalType":"uint256"},{"name":"percentage_holding","type":"uint256","internalType":"uint256"},{"name":"initialprice","type":"uint64","internalType":"uint64"}],"outputs":[],"stateMutability":"nonpayable"},{"type":"function","name":"sell","inputs":[{"name":"amount","type":"uint256","internalType":"uint256"},{"name":"minExpected","type":"uint256","internalType":"uint256"}],"outputs":[],"stateMutability":"nonpayable"},{"type":"function","name":"token","inputs":[],"outputs":[{"name":"","type":"address","internalType":"contract IERC20"}],"stateMutability":"view"},{"type":"function","name":"weth","inputs":[],"outputs":[{"name":"","type":"address","internalType":"contract IWETH"}],"stateMutability":"view"},{"type":"function","name":"wethInContract","inputs":[],"outputs":[{"name":"","type":"uint256","internalType":"uint256"}],"stateMutability":"view"},{"type":"function","name":"withdrawFees","inputs":[],"outputs":[],"stateMutability":"nonpayable"},{"type":"event","name":"Buy","inputs":[{"name":"buyer","type":"address","indexed":true,"internalType":"address"},{"name":"ethAmount","type":"uint256","indexed":false,"internalType":"uint256"},{"name":"tokenAmount","type":"uint256","indexed":false,"internalType":"uint256"}],"anonymous":false},{"type":"event","name":"Sell","inputs":[{"name":"seller","type":"address","indexed":true,"internalType":"address"},{"name":"ethAmount","type":"uint256","indexed":false,"internalType":"uint256"},{"name":"tokenAmount","type":"uint256","indexed":false,"internalType":"uint256"}],"anonymous":false},{"type":"event","name":"UniswapPoolCreated","inputs":[{"name":"poolAddress","type":"address","indexed":true,"internalType":"address"}],"anonymous":false},{"type":"error","name":"MoonUpMarket__CANNOT_BUY_MORE_THAN_3_PERCENT","inputs":[]},{"type":"error","name":"MoonUpMarket__CANNOT_INITIALIZE_TWICE","inputs":[]},{"type":"error","name":"MoonUpMarket__FAILED_TRANSACTION","inputs":[]},{"type":"error","name":"MoonUpMarket__INVALID_AMOUNT","inputs":[]},{"type":"error","name":"MoonUpMarket__MARKET_CLOSED","inputs":[]}],"bytecode":{"object":"0x6080604052348015600f57600080fd5b5061145e8061001f6000396000f3fe6080604052600436106100a75760003560e01c8063d21b181311610064578063d21b181314610178578063d79875eb1461018d578063d96a094a146101ad578063ec2db92d146101c0578063f51c94de146101d5578063fc0c546a146101f557600080fd5b80633fc8cef3146100ac578063476343ee146100e95780635104291c1461010057806398d5fdca1461012e578063ae15821114610143578063af31210e14610158575b600080fd5b3480156100b857600080fd5b506001546100cc906001600160a01b031681565b6040516001600160a01b0390911681526020015b60405180910390f35b3480156100f557600080fd5b506100fe610215565b005b34801561010c57600080fd5b5061012061011b366004610f6a565b610368565b6040519081526020016100e0565b34801561013a57600080fd5b50610120610382565b34801561014f57600080fd5b50600354610120565b34801561016457600080fd5b50610120610173366004610f6a565b6103e1565b34801561018457600080fd5b506101206103f5565b34801561019957600080fd5b506100fe6101a8366004610f83565b610403565b6100fe6101bb366004610f6a565b610646565b3480156101cc57600080fd5b506101206108a9565b3480156101e157600080fd5b506100fe6101f0366004610fba565b610916565b34801561020157600080fd5b506000546100cc906001600160a01b031681565b600d5461010090046001600160a01b031633146102795760405162461bcd60e51b815260206004820152601c60248201527f4f6e6c79206f776e65722063616e20776974686472617720666565730000000060448201526064015b60405180910390fd5b600154600160a01b900460ff16156102ca5760405162461bcd60e51b815260206004820152601460248201527326b0b935b2ba1034b99039ba34b6361037b832b760611b6044820152606401610270565b600d5460405160009161010090046001600160a01b03169047908381818185875af1925050503d806000811461031c576040519150601f19603f3d011682016040523d82523d6000602084013e610321565b606091505b50509050806103655760405162461bcd60e51b815260206004820152601060248201526f7472616e73666572206661696c65642160801b6044820152606401610270565b50565b6000610372610382565b61037c9083611092565b92915050565b600b54600090156103d057600354600a54600b546103aa9167ffffffffffffffff1690611092565b6103b491906110bf565b600a546103cb919067ffffffffffffffff166110d3565b905090565b50600a5467ffffffffffffffff1690565b60006103eb610382565b61037c90836110bf565b60006103cb61011b60035490565b600154600160a01b900460ff1661042d576040516308895a6160e11b815260040160405180910390fd5b8160000361044e576040516304625b0f60e31b815260040160405180910390fd5b81600061045a826103e1565b905060006103e861046c83600a611092565b61047691906110bf565b9050600061048482846110e6565b9050848310156104a7576040516302bccf3d60e01b815260040160405180910390fd5b6000546040516323b872dd60e01b8152336004820152306024820152604481018690526001600160a01b03909116906323b872dd906064016020604051808303816000875af11580156104fe573d6000803e3d6000fd5b505050506040513d601f19601f8201168201806040525081019061052291906110f9565b50826002600082825461053591906110e6565b9091555050336000908152600c6020526040812080548692906105599084906110e6565b9250508190555083600b600082825461057291906110e6565b9091555050604051600090339083908381818185875af1925050503d80600081146105b9576040519150601f19603f3d011682016040523d82523d6000602084013e6105be565b606091505b50509050806106025760405162461bcd60e51b815260206004820152601060248201526f7472616e73666572206661696c65642160801b6044820152606401610270565b604080518581526020810187905233917fed7a144fad14804d5c249145e3e0e2b63a9eb455b76aee5bc92d711e9bba3e4a910160405180910390a250505050505050565b600154600160a01b900460ff16610670576040516308895a6160e11b815260040160405180910390fd5b34600003610691576040516304625b0f60e31b815260040160405180910390fd5b60006103e86106a134600a611092565b6106ab91906110bf565b905060006106b982346110e6565b905060006106c682610368565b905080600354101561072c5760405162461bcd60e51b815260206004820152602960248201527f546f6b656e20416d6f756e742047726561746572207468616e20617661696c61604482015268313632902a37b5b2b760b91b6064820152608401610270565b8381101561074d576040516302bccf3d60e01b815260040160405180910390fd5b346002600082825461075f91906110d3565b9250508190555080600b600082825461077891906110d3565b9091555050336000908152600c60205260408120805483929061079c9084906110d3565b9091555050600954336000908152600c602052604090205411156107d357604051635130dff360e11b815260040160405180910390fd5b60005460405163a9059cbb60e01b8152336004820152602481018390526001600160a01b039091169063a9059cbb906044016020604051808303816000875af1158015610824573d6000803e3d6000fd5b505050506040513d601f19601f8201168201806040525081019061084891906110f9565b50604080518381526020810183905233917f1cbc5ab135991bd2b6a4b034a04aa2aa086dac1371cb9b16b8b5e2ed6b036bed910160405180910390a26003546000036108a3576001805460ff60a01b191690556108a3610a0c565b50505050565b6001546040516370a0823160e01b81523060048201526000916001600160a01b0316906370a0823190602401602060405180830381865afa1580156108f2573d6000803e3d6000fd5b505050506040513d601f19601f820116820180604052508101906103cb9190611122565b600d5460ff16151560010361093e57604051633a2c37fd60e11b815260040160405180910390fd5b600080546001600160a01b03199081166001600160a01b039c8d1617909155600180546005805484169b8e169b909b17909a55600480548316998d1699909917909855600160a01b998b166001600160a81b03199099169890981798909817909555600393909355600d8054610100600160a81b03191661010033021790556006805486169288169290921790915560078054909416951694909417909155600892909255600991909155600a805467ffffffffffffffff191667ffffffffffffffff909216919091179055565b6753444835ec580000471015610a735760405162461bcd60e51b815260206004820152602660248201527f496e73756666696369656e742062616c616e636520746f2061646420746f205560448201526506e69737761760d41b6064820152608401610270565b610a84674563918244f40000610d3f565b600454600080546001549192610aac926001600160a01b0391821692821691166101f4610dab565b600654600754919250600091610ace916001600160a01b03908116911661113b565b905060006060610add83610e37565b610ae890600261116a565b610af291906112bc565b9050610afe8382610ea2565b6040805161016081018252600080546001600160a01b039081168352600154811660208401526101f493830193909352620d89e7196060830152620d89e86080830152600654831660a083015260075490921660c082015260e081018290526101008101829052306101208201526101408101610b7c4260646110d3565b905260015460055460075460405163095ea7b360e01b81526001600160a01b0392831660048201529082166024820152929350169063095ea7b3906044016020604051808303816000875af1158015610bd9573d6000803e3d6000fd5b505050506040513d601f19601f82011682018060405250810190610bfd91906110f9565b5060005460055460065460405163095ea7b360e01b81526001600160a01b039283166004820152908216602482015291169063095ea7b3906044016020604051808303816000875af1158015610c57573d6000803e3d6000fd5b505050506040513d601f19601f82011682018060405250810190610c7b91906110f9565b50600554600090610c95906001600160a01b031683610ee5565b50506005546040516323b872dd60e01b815230600482015260006024820152604481018490529293506001600160a01b0316916323b872dd9150606401600060405180830381600087803b158015610cec57600080fd5b505af1158015610d00573d6000803e3d6000fd5b50506040516001600160a01b03881692507f2b1e37bc1165bf219bf005c57b4bd9edeac92a5690bbe16bafacb65f508ebfea9150600090a25050505050565b600160009054906101000a90046001600160a01b03166001600160a01b031663d0e30db0826040518263ffffffff1660e01b81526004016000604051808303818588803b158015610d8f57600080fd5b505af1158015610da3573d6000803e3d6000fd5b505050505050565b60405163a167129560e01b81526001600160a01b038481166004830152838116602483015262ffffff831660448301526000919086169063a1671295906064016020604051808303816000875af1158015610e0a573d6000803e3d6000fd5b505050506040513d601f19601f82011682018060405250810190610e2e91906112d4565b95945050505050565b6000806002610e478460016112f1565b610e51919061113b565b90508291505b816001600160a01b0316816001600160a01b03161015610e9c57905080600281610e81818661113b565b610e8b91906112f1565b610e95919061113b565b9050610e57565b50919050565b60405163f637731d60e01b81526001600160a01b03828116600483015283169063f637731d90602401600060405180830381600087803b158015610d8f57600080fd5b600080600080856001600160a01b03166388316456866040518263ffffffff1660e01b8152600401610f179190611310565b6080604051808303816000875af1158015610f36573d6000803e3d6000fd5b505050506040513d601f19601f82011682018060405250810190610f5a91906113d4565b9299919850965090945092505050565b600060208284031215610f7c57600080fd5b5035919050565b60008060408385031215610f9657600080fd5b50508035926020909101359150565b6001600160a01b038116811461036557600080fd5b6000806000806000806000806000806101408b8d031215610fda57600080fd5b8a35610fe581610fa5565b995060208b0135610ff581610fa5565b985060408b013561100581610fa5565b975060608b013561101581610fa5565b965060808b0135955060a08b013561102c81610fa5565b945060c08b013561103c81610fa5565b935060e08b013592506101008b013591506101208b013567ffffffffffffffff8116811461106957600080fd5b809150509295989b9194979a5092959850565b634e487b7160e01b600052601160045260246000fd5b808202811582820484141761037c5761037c61107c565b634e487b7160e01b600052601260045260246000fd5b6000826110ce576110ce6110a9565b500490565b8082018082111561037c5761037c61107c565b8181038181111561037c5761037c61107c565b60006020828403121561110b57600080fd5b8151801515811461111b57600080fd5b9392505050565b60006020828403121561113457600080fd5b5051919050565b60006001600160a01b03831680611154576111546110a9565b6001600160a01b03929092169190910492915050565b6001600160a01b038181168382168181029092169181830481148215176111935761119361107c565b505092915050565b6001815b60018411156111d6578085048111156111ba576111ba61107c565b60018416156111c857908102905b60019390931c92800261119f565b935093915050565b6000826111ed5750600161037c565b816111fa5750600061037c565b8160018114611210576002811461121a5761124e565b600191505061037c565b60ff84111561122b5761122b61107c565b6001841b91506001600160a01b038211156112485761124861107c565b5061037c565b5060208310610133831016604e8410600b8410161715611288575081810a6001600160a01b038111156112835761128361107c565b61037c565b61129a6001600160a01b03848461119b565b6001600160a01b038190048211156112b4576112b461107c565b029392505050565b600061111b60ff84166001600160a01b0384166111de565b6000602082840312156112e657600080fd5b815161111b81610fa5565b6001600160a01b03818116838216019081111561037c5761037c61107c565b81516001600160a01b031681526101608101602083015161133c60208401826001600160a01b03169052565b506040830151611353604084018262ffffff169052565b506060830151611368606084018260020b9052565b50608083015161137d608084018260020b9052565b5060a083015160a083015260c083015160c083015260e083015160e08301526101008301516101008301526101208301516113c46101208401826001600160a01b03169052565b5061014092830151919092015290565b600080600080608085870312156113ea57600080fd5b845160208601519094506fffffffffffffffffffffffffffffffff8116811461141257600080fd5b604086015160609096015194979096509250505056fea26469706673582212204b07093c309b04fe0e1e30e5b0e66db03071dda03bd34550ec73f5fd7c596ebd64736f6c634300081a0033","linkReferences":{}},"methodIdentifiers":{"buy(uint256)":"d96a094a","getAvailableToken()":"ae158211","getEthQoute(uint256)":"af31210e","getPrice()":"98d5fdca","getPriceOfAvailableTokens()":"d21b1813","getTokenQoute(uint256)":"5104291c","initialize(address,address,address,address,uint256,uint160,uint160,uint256,uint256,uint64)":"f51c94de","sell(uint256,uint256)":"d79875eb","token()":"fc0c546a","weth()":"3fc8cef3","wethInContract()":"ec2db92d","withdrawFees()":"476343ee"},"id":36}