{"abi":[{"type":"function","name":"buy","inputs":[{"name":"minExpected","type":"uint256","internalType":"uint256"}],"outputs":[],"stateMutability":"payable"},{"type":"function","name":"getAvailableToken","inputs":[],"outputs":[{"name":"","type":"uint256","internalType":"uint256"}],"stateMutability":"view"},{"type":"function","name":"getEthQoute","inputs":[{"name":"amount","type":"uint256","internalType":"uint256"}],"outputs":[{"name":"","type":"uint256","internalType":"uint256"}],"stateMutability":"view"},{"type":"function","name":"getPrice","inputs":[],"outputs":[{"name":"","type":"uint256","internalType":"uint256"}],"stateMutability":"view"},{"type":"function","name":"getPriceOfAvailableTokens","inputs":[],"outputs":[{"name":"","type":"uint256","internalType":"uint256"}],"stateMutability":"view"},{"type":"function","name":"getTokenQoute","inputs":[{"name":"amount","type":"uint256","internalType":"uint256"}],"outputs":[{"name":"","type":"uint256","internalType":"uint256"}],"stateMutability":"view"},{"type":"function","name":"initialize","inputs":[{"name":"_token","type":"address","internalType":"address"},{"name":"_weth","type":"address","internalType":"contract IWETH"},{"name":"_nfpm","type":"address","internalType":"address"},{"name":"_uFactory","type":"address","internalType":"address"},{"name":"_total_Trade_Volume","type":"uint256","internalType":"uint256"},{"name":"Token_Liquidity","type":"uint160","internalType":"uint160"},{"name":"Eth_Liquidity","type":"uint160","internalType":"uint160"},{"name":"total_token_supply","type":"uint256","internalType":"uint256"},{"name":"percentage_holding","type":"uint256","internalType":"uint256"},{"name":"initialprice","type":"uint64","internalType":"uint64"}],"outputs":[],"stateMutability":"nonpayable"},{"type":"function","name":"sell","inputs":[{"name":"amount","type":"uint256","internalType":"uint256"},{"name":"minExpected","type":"uint256","internalType":"uint256"}],"outputs":[],"stateMutability":"nonpayable"},{"type":"function","name":"token","inputs":[],"outputs":[{"name":"","type":"address","internalType":"contract IERC20"}],"stateMutability":"view"},{"type":"function","name":"weth","inputs":[],"outputs":[{"name":"","type":"address","internalType":"contract IWETH"}],"stateMutability":"view"},{"type":"function","name":"withdrawFees","inputs":[],"outputs":[],"stateMutability":"nonpayable"},{"type":"event","name":"Buy","inputs":[{"name":"buyer","type":"address","indexed":true,"internalType":"address"},{"name":"ethAmount","type":"uint256","indexed":false,"internalType":"uint256"},{"name":"tokenAmount","type":"uint256","indexed":false,"internalType":"uint256"}],"anonymous":false},{"type":"event","name":"Sell","inputs":[{"name":"seller","type":"address","indexed":true,"internalType":"address"},{"name":"ethAmount","type":"uint256","indexed":false,"internalType":"uint256"},{"name":"tokenAmount","type":"uint256","indexed":false,"internalType":"uint256"}],"anonymous":false},{"type":"event","name":"UniswapPoolCreated","inputs":[{"name":"poolAddress","type":"address","indexed":true,"internalType":"address"}],"anonymous":false},{"type":"error","name":"MoonUpMarket__CANNOT_BUY_MORE_THAN_3_PERCENT","inputs":[]},{"type":"error","name":"MoonUpMarket__CANNOT_INITIALIZE_TWICE","inputs":[]},{"type":"error","name":"MoonUpMarket__FAILED_TRANSACTION","inputs":[]},{"type":"error","name":"MoonUpMarket__INVALID_AMOUNT","inputs":[]},{"type":"error","name":"MoonUpMarket__MARKET_CLOSED","inputs":[]}],"bytecode":{"object":"0x6080604052348015600f57600080fd5b506113c98061001f6000396000f3fe60806040526004361061009c5760003560e01c8063af31210e11610064578063af31210e1461014d578063d21b18131461016d578063d79875eb14610182578063d96a094a146101a2578063f51c94de146101b5578063fc0c546a146101d557600080fd5b80633fc8cef3146100a1578063476343ee146100de5780635104291c146100f557806398d5fdca14610123578063ae15821114610138575b600080fd5b3480156100ad57600080fd5b506001546100c1906001600160a01b031681565b6040516001600160a01b0390911681526020015b60405180910390f35b3480156100ea57600080fd5b506100f36101f5565b005b34801561010157600080fd5b50610115610110366004610eee565b610348565b6040519081526020016100d5565b34801561012f57600080fd5b50610115610362565b34801561014457600080fd5b506101156103c1565b34801561015957600080fd5b50610115610168366004610eee565b6103d3565b34801561017957600080fd5b506101156103e7565b34801561018e57600080fd5b506100f361019d366004610f07565b6103f4565b6100f36101b0366004610eee565b610637565b3480156101c157600080fd5b506100f36101d0366004610f3e565b61089a565b3480156101e157600080fd5b506000546100c1906001600160a01b031681565b600d5461010090046001600160a01b031633146102595760405162461bcd60e51b815260206004820152601c60248201527f4f6e6c79206f776e65722063616e20776974686472617720666565730000000060448201526064015b60405180910390fd5b600154600160a01b900460ff16156102aa5760405162461bcd60e51b815260206004820152601460248201527326b0b935b2ba1034b99039ba34b6361037b832b760611b6044820152606401610250565b600d5460405160009161010090046001600160a01b03169047908381818185875af1925050503d80600081146102fc576040519150601f19603f3d011682016040523d82523d6000602084013e610301565b606091505b50509050806103455760405162461bcd60e51b815260206004820152601060248201526f7472616e73666572206661696c65642160801b6044820152606401610250565b50565b6000610352610362565b61035c9083611016565b92915050565b600b54600090156103b057600354600a54600b5461038a9167ffffffffffffffff1690611016565b6103949190611043565b600a546103ab919067ffffffffffffffff16611057565b905090565b50600a5467ffffffffffffffff1690565b6000600b546003546103ab919061106a565b60006103dd610362565b61035c9083611043565b60006103ab6101106103c1565b600154600160a01b900460ff1661041e576040516308895a6160e11b815260040160405180910390fd5b8160000361043f576040516304625b0f60e31b815260040160405180910390fd5b81600061044b826103d3565b905060006103e861045d83600a611016565b6104679190611043565b90506000610475828461106a565b905084831015610498576040516302bccf3d60e01b815260040160405180910390fd5b6000546040516323b872dd60e01b8152336004820152306024820152604481018690526001600160a01b03909116906323b872dd906064016020604051808303816000875af11580156104ef573d6000803e3d6000fd5b505050506040513d601f19601f82011682018060405250810190610513919061107d565b508260026000828254610526919061106a565b9091555050336000908152600c60205260408120805486929061054a90849061106a565b9250508190555083600b6000828254610563919061106a565b9091555050604051600090339083908381818185875af1925050503d80600081146105aa576040519150601f19603f3d011682016040523d82523d6000602084013e6105af565b606091505b50509050806105f35760405162461bcd60e51b815260206004820152601060248201526f7472616e73666572206661696c65642160801b6044820152606401610250565b604080518581526020810187905233917fed7a144fad14804d5c249145e3e0e2b63a9eb455b76aee5bc92d711e9bba3e4a910160405180910390a250505050505050565b600154600160a01b900460ff16610661576040516308895a6160e11b815260040160405180910390fd5b34600003610682576040516304625b0f60e31b815260040160405180910390fd5b60006103e861069234600a611016565b61069c9190611043565b905060006106aa823461106a565b905060006106b782610348565b905080600354101561071d5760405162461bcd60e51b815260206004820152602960248201527f546f6b656e20416d6f756e742047726561746572207468616e20617661696c61604482015268313632902a37b5b2b760b91b6064820152608401610250565b8381101561073e576040516302bccf3d60e01b815260040160405180910390fd5b34600260008282546107509190611057565b9250508190555080600b60008282546107699190611057565b9091555050336000908152600c60205260408120805483929061078d908490611057565b9091555050600954336000908152600c602052604090205411156107c457604051635130dff360e11b815260040160405180910390fd5b60005460405163a9059cbb60e01b8152336004820152602481018390526001600160a01b039091169063a9059cbb906044016020604051808303816000875af1158015610815573d6000803e3d6000fd5b505050506040513d601f19601f82011682018060405250810190610839919061107d565b50604080518381526020810183905233917f1cbc5ab135991bd2b6a4b034a04aa2aa086dac1371cb9b16b8b5e2ed6b036bed910160405180910390a2600354600003610894576001805460ff60a01b19169055610894610990565b50505050565b600d5460ff1615156001036108c257604051633a2c37fd60e11b815260040160405180910390fd5b600080546001600160a01b03199081166001600160a01b039c8d1617909155600180546005805484169b8e169b909b17909a55600480548316998d1699909917909855600160a01b998b166001600160a81b03199099169890981798909817909555600393909355600d8054610100600160a81b03191661010033021790556006805486169288169290921790915560078054909416951694909417909155600892909255600991909155600a805467ffffffffffffffff191667ffffffffffffffff909216919091179055565b6753444835ec5800004710156109f75760405162461bcd60e51b815260206004820152602660248201527f496e73756666696369656e742062616c616e636520746f2061646420746f205560448201526506e69737761760d41b6064820152608401610250565b610a08674563918244f40000610cc3565b600454600080546001549192610a30926001600160a01b0391821692821691166101f4610d2f565b600654600754919250600091610a52916001600160a01b0390811691166110a6565b905060006060610a6183610dbb565b610a6c9060026110d5565b610a769190611227565b9050610a828382610e26565b6040805161016081018252600080546001600160a01b039081168352600154811660208401526101f493830193909352620d89e7196060830152620d89e86080830152600654831660a083015260075490921660c082015260e081018290526101008101829052306101208201526101408101610b00426064611057565b905260015460055460075460405163095ea7b360e01b81526001600160a01b0392831660048201529082166024820152929350169063095ea7b3906044016020604051808303816000875af1158015610b5d573d6000803e3d6000fd5b505050506040513d601f19601f82011682018060405250810190610b81919061107d565b5060005460055460065460405163095ea7b360e01b81526001600160a01b039283166004820152908216602482015291169063095ea7b3906044016020604051808303816000875af1158015610bdb573d6000803e3d6000fd5b505050506040513d601f19601f82011682018060405250810190610bff919061107d565b50600554600090610c19906001600160a01b031683610e69565b50506005546040516323b872dd60e01b815230600482015260006024820152604481018490529293506001600160a01b0316916323b872dd9150606401600060405180830381600087803b158015610c7057600080fd5b505af1158015610c84573d6000803e3d6000fd5b50506040516001600160a01b03881692507f2b1e37bc1165bf219bf005c57b4bd9edeac92a5690bbe16bafacb65f508ebfea9150600090a25050505050565b600160009054906101000a90046001600160a01b03166001600160a01b031663d0e30db0826040518263ffffffff1660e01b81526004016000604051808303818588803b158015610d1357600080fd5b505af1158015610d27573d6000803e3d6000fd5b505050505050565b60405163a167129560e01b81526001600160a01b038481166004830152838116602483015262ffffff831660448301526000919086169063a1671295906064016020604051808303816000875af1158015610d8e573d6000803e3d6000fd5b505050506040513d601f19601f82011682018060405250810190610db2919061123f565b95945050505050565b6000806002610dcb84600161125c565b610dd591906110a6565b90508291505b816001600160a01b0316816001600160a01b03161015610e2057905080600281610e0581866110a6565b610e0f919061125c565b610e1991906110a6565b9050610ddb565b50919050565b60405163f637731d60e01b81526001600160a01b03828116600483015283169063f637731d90602401600060405180830381600087803b158015610d1357600080fd5b600080600080856001600160a01b03166388316456866040518263ffffffff1660e01b8152600401610e9b919061127b565b6080604051808303816000875af1158015610eba573d6000803e3d6000fd5b505050506040513d601f19601f82011682018060405250810190610ede919061133f565b9299919850965090945092505050565b600060208284031215610f0057600080fd5b5035919050565b60008060408385031215610f1a57600080fd5b50508035926020909101359150565b6001600160a01b038116811461034557600080fd5b6000806000806000806000806000806101408b8d031215610f5e57600080fd5b8a35610f6981610f29565b995060208b0135610f7981610f29565b985060408b0135610f8981610f29565b975060608b0135610f9981610f29565b965060808b0135955060a08b0135610fb081610f29565b945060c08b0135610fc081610f29565b935060e08b013592506101008b013591506101208b013567ffffffffffffffff81168114610fed57600080fd5b809150509295989b9194979a5092959850565b634e487b7160e01b600052601160045260246000fd5b808202811582820484141761035c5761035c611000565b634e487b7160e01b600052601260045260246000fd5b6000826110525761105261102d565b500490565b8082018082111561035c5761035c611000565b8181038181111561035c5761035c611000565b60006020828403121561108f57600080fd5b8151801515811461109f57600080fd5b9392505050565b60006001600160a01b038316806110bf576110bf61102d565b6001600160a01b03929092169190910492915050565b6001600160a01b038181168382168181029092169181830481148215176110fe576110fe611000565b505092915050565b6001815b60018411156111415780850481111561112557611125611000565b600184161561113357908102905b60019390931c92800261110a565b935093915050565b6000826111585750600161035c565b816111655750600061035c565b816001811461117b5760028114611185576111b9565b600191505061035c565b60ff84111561119657611196611000565b6001841b91506001600160a01b038211156111b3576111b3611000565b5061035c565b5060208310610133831016604e8410600b84101617156111f3575081810a6001600160a01b038111156111ee576111ee611000565b61035c565b6112056001600160a01b038484611106565b6001600160a01b0381900482111561121f5761121f611000565b029392505050565b600061109f60ff84166001600160a01b038416611149565b60006020828403121561125157600080fd5b815161109f81610f29565b6001600160a01b03818116838216019081111561035c5761035c611000565b81516001600160a01b03168152610160810160208301516112a760208401826001600160a01b03169052565b5060408301516112be604084018262ffffff169052565b5060608301516112d3606084018260020b9052565b5060808301516112e8608084018260020b9052565b5060a083015160a083015260c083015160c083015260e083015160e083015261010083015161010083015261012083015161132f6101208401826001600160a01b03169052565b5061014092830151919092015290565b6000806000806080858703121561135557600080fd5b845160208601519094506fffffffffffffffffffffffffffffffff8116811461137d57600080fd5b604086015160609096015194979096509250505056fea26469706673582212208e18e7a3c2b7da8300be2da2f205f54c449ea64eeeb7d6f746bbca1f53f164c464736f6c634300081a0033","linkReferences":{}},"methodIdentifiers":{"buy(uint256)":"d96a094a","getAvailableToken()":"ae158211","getEthQoute(uint256)":"af31210e","getPrice()":"98d5fdca","getPriceOfAvailableTokens()":"d21b1813","getTokenQoute(uint256)":"5104291c","initialize(address,address,address,address,uint256,uint160,uint160,uint256,uint256,uint64)":"f51c94de","sell(uint256,uint256)":"d79875eb","token()":"fc0c546a","weth()":"3fc8cef3","withdrawFees()":"476343ee"},"id":35}