{"abi":[{"type":"function","name":"buy","inputs":[{"name":"minExpected","type":"uint256","internalType":"uint256"}],"outputs":[],"stateMutability":"payable"},{"type":"function","name":"getAvailableToken","inputs":[],"outputs":[{"name":"","type":"uint256","internalType":"uint256"}],"stateMutability":"view"},{"type":"function","name":"getEthQoute","inputs":[{"name":"amount","type":"uint256","internalType":"uint256"}],"outputs":[{"name":"","type":"uint256","internalType":"uint256"}],"stateMutability":"view"},{"type":"function","name":"getPrice","inputs":[],"outputs":[{"name":"","type":"uint256","internalType":"uint256"}],"stateMutability":"view"},{"type":"function","name":"getPriceOfAvailableTokens","inputs":[],"outputs":[{"name":"","type":"uint256","internalType":"uint256"}],"stateMutability":"view"},{"type":"function","name":"getTokenQoute","inputs":[{"name":"amount","type":"uint256","internalType":"uint256"}],"outputs":[{"name":"","type":"uint256","internalType":"uint256"}],"stateMutability":"view"},{"type":"function","name":"initialize","inputs":[{"name":"_token","type":"address","internalType":"address"},{"name":"_weth","type":"address","internalType":"contract IWETH"},{"name":"_nfpm","type":"address","internalType":"address"},{"name":"_uFactory","type":"address","internalType":"address"},{"name":"_total_Trade_Volume","type":"uint256","internalType":"uint256"}],"outputs":[],"stateMutability":"nonpayable"},{"type":"function","name":"sell","inputs":[{"name":"amount","type":"uint256","internalType":"uint256"},{"name":"minExpected","type":"uint256","internalType":"uint256"}],"outputs":[],"stateMutability":"nonpayable"},{"type":"function","name":"token","inputs":[],"outputs":[{"name":"","type":"address","internalType":"contract IERC20"}],"stateMutability":"view"},{"type":"function","name":"weth","inputs":[],"outputs":[{"name":"","type":"address","internalType":"contract IWETH"}],"stateMutability":"view"},{"type":"function","name":"withdrawFees","inputs":[],"outputs":[],"stateMutability":"nonpayable"},{"type":"event","name":"Buy","inputs":[{"name":"buyer","type":"address","indexed":true,"internalType":"address"},{"name":"ethAmount","type":"uint256","indexed":false,"internalType":"uint256"},{"name":"tokenAmount","type":"uint256","indexed":false,"internalType":"uint256"}],"anonymous":false},{"type":"event","name":"Sell","inputs":[{"name":"seller","type":"address","indexed":true,"internalType":"address"},{"name":"ethAmount","type":"uint256","indexed":false,"internalType":"uint256"},{"name":"tokenAmount","type":"uint256","indexed":false,"internalType":"uint256"}],"anonymous":false},{"type":"event","name":"UniswapPoolCreated","inputs":[{"name":"poolAddress","type":"address","indexed":true,"internalType":"address"}],"anonymous":false},{"type":"error","name":"MoonUpMarket__CANNOT_INITIALIZE_TWICE","inputs":[]},{"type":"error","name":"MoonUpMarket__FAILED_TRANSACTION","inputs":[]},{"type":"error","name":"MoonUpMarket__INVALID_AMOUNT","inputs":[]},{"type":"error","name":"MoonUpMarket__MARKET_CLOSED","inputs":[]}],"bytecode":{"object":"0x6080604052600680546001600160a01b03199081166aa56fa5b99019a5c80000001790915560078054909116674563918244f400001790556b033b2e3c9fd0803ce80000006008556a18d0bf423c03d8de000000600955348015606157600080fd5b5061133a806100716000396000f3fe60806040526004361061009c5760003560e01c8063af31210e11610064578063af31210e1461014d578063d21b18131461016d578063d79875eb14610182578063d96a094a146101a2578063f7013ef6146101b5578063fc0c546a146101d557600080fd5b80633fc8cef3146100a1578063476343ee146100de5780635104291c146100f557806398d5fdca14610123578063ae15821114610138575b600080fd5b3480156100ad57600080fd5b506001546100c1906001600160a01b031681565b6040516001600160a01b0390911681526020015b60405180910390f35b3480156100ea57600080fd5b506100f36101f5565b005b34801561010157600080fd5b50610115610110366004610ebd565b610348565b6040519081526020016100d5565b34801561012f57600080fd5b50610115610374565b34801561014457600080fd5b50600354610115565b34801561015957600080fd5b50610115610168366004610ebd565b610391565b34801561017957600080fd5b506101156103ae565b34801561018e57600080fd5b506100f361019d366004610ed6565b6103bc565b6100f36101b0366004610ebd565b6105ff565b3480156101c157600080fd5b506100f36101d0366004610f0d565b610891565b3480156101e157600080fd5b506000546100c1906001600160a01b031681565b600b5461010090046001600160a01b031633146102595760405162461bcd60e51b815260206004820152601c60248201527f4f6e6c79206f776e65722063616e20776974686472617720666565730000000060448201526064015b60405180910390fd5b600154600160a01b900460ff16156102aa5760405162461bcd60e51b815260206004820152601460248201527326b0b935b2ba1034b99039ba34b6361037b832b760611b6044820152606401610250565b600b5460405160009161010090046001600160a01b03169047908381818185875af1925050503d80600081146102fc576040519150601f19603f3d011682016040523d82523d6000602084013e610301565b606091505b50509050806103455760405162461bcd60e51b815260206004820152601060248201526f7472616e73666572206661696c65642160801b6044820152606401610250565b50565b6000610352610374565b61036483670de0b6b3a7640000610f87565b61036e9190610fb4565b92915050565b60006003546753444835ec58000061038c9190610fb4565b905090565b6000670de0b6b3a76400006103a4610374565b6103649084610f87565b600061038c61011060035490565b600154600160a01b900460ff166103e6576040516308895a6160e11b815260040160405180910390fd5b81600003610407576040516304625b0f60e31b815260040160405180910390fd5b81600061041382610937565b905060006103e861042583600a610f87565b61042f9190610fb4565b9050600061043d8284610fc8565b905084831015610460576040516302bccf3d60e01b815260040160405180910390fd5b6000546040516323b872dd60e01b8152336004820152306024820152604481018690526001600160a01b03909116906323b872dd906064016020604051808303816000875af11580156104b7573d6000803e3d6000fd5b505050506040513d601f19601f820116820180604052508101906104db9190610fdb565b5082600260008282546104ee9190610fc8565b9250508190555083600360008282546105079190611004565b9091555050336000908152600a60205260408120805486929061052b908490610fc8565b9091555050604051600090339083908381818185875af1925050503d8060008114610572576040519150601f19603f3d011682016040523d82523d6000602084013e610577565b606091505b50509050806105bb5760405162461bcd60e51b815260206004820152601060248201526f7472616e73666572206661696c65642160801b6044820152606401610250565b604080518581526020810187905233917fed7a144fad14804d5c249145e3e0e2b63a9eb455b76aee5bc92d711e9bba3e4a910160405180910390a250505050505050565b600154600160a01b900460ff16610629576040516308895a6160e11b815260040160405180910390fd5b3460000361064a576040516304625b0f60e31b815260040160405180910390fd5b60006103e861065a34600a610f87565b6106649190610fb4565b905060006106728234610fc8565b9050600061067f8261094b565b600954336000908152600a6020526040902054919250906106a1908390611004565b11156106e25760405162461bcd60e51b815260206004820152601060248201526f42616c616e6365204f766572666c6f7760801b6044820152606401610250565b8060035410156107465760405162461bcd60e51b815260206004820152602960248201527f546f6b656e20416d6f756e742047726561746572207468616e20617661696c61604482015268313632902a37b5b2b760b91b6064820152608401610250565b83811015610767576040516302bccf3d60e01b815260040160405180910390fd5b34600260008282546107799190611004565b9250508190555080600360008282546107929190610fc8565b9091555050336000908152600a6020526040812080548392906107b6908490611004565b909155505060005460405163a9059cbb60e01b8152336004820152602481018390526001600160a01b039091169063a9059cbb906044016020604051808303816000875af115801561080c573d6000803e3d6000fd5b505050506040513d601f19601f820116820180604052508101906108309190610fdb565b50604080518381526020810183905233917f1cbc5ab135991bd2b6a4b034a04aa2aa086dac1371cb9b16b8b5e2ed6b036bed910160405180910390a260035460000361088b576001805460ff60a01b1916905561088b61095f565b50505050565b600b5460ff1615156001036108b957604051633a2c37fd60e11b815260040160405180910390fd5b600080546001600160a01b03199081166001600160a01b0397881617909155600180546005805484169689169690961790955560048054909216938716939093179055600160a01b939094166001600160a81b031990921691909117919091179055600355600b8054610100600160a81b0319166101003302179055565b6000610941610374565b61036e9083610f87565b6000610955610374565b61036e9083610fb4565b6753444835ec5800004710156109c65760405162461bcd60e51b815260206004820152602660248201527f496e73756666696369656e742062616c616e636520746f2061646420746f205560448201526506e69737761760d41b6064820152608401610250565b6109d7674563918244f40000610c92565b6004546000805460015491926109ff926001600160a01b0391821692821691166101f4610cfe565b600654600754919250600091610a21916001600160a01b039081169116611017565b905060006060610a3083610d8a565b610a3b906002611046565b610a459190611198565b9050610a518382610df5565b6040805161016081018252600080546001600160a01b039081168352600154811660208401526101f493830193909352620d89e7196060830152620d89e86080830152600654831660a083015260075490921660c082015260e081018290526101008101829052306101208201526101408101610acf426064611004565b905260015460055460075460405163095ea7b360e01b81526001600160a01b0392831660048201529082166024820152929350169063095ea7b3906044016020604051808303816000875af1158015610b2c573d6000803e3d6000fd5b505050506040513d601f19601f82011682018060405250810190610b509190610fdb565b5060005460055460065460405163095ea7b360e01b81526001600160a01b039283166004820152908216602482015291169063095ea7b3906044016020604051808303816000875af1158015610baa573d6000803e3d6000fd5b505050506040513d601f19601f82011682018060405250810190610bce9190610fdb565b50600554600090610be8906001600160a01b031683610e38565b50506005546040516323b872dd60e01b815230600482015260006024820152604481018490529293506001600160a01b0316916323b872dd9150606401600060405180830381600087803b158015610c3f57600080fd5b505af1158015610c53573d6000803e3d6000fd5b50506040516001600160a01b03881692507f2b1e37bc1165bf219bf005c57b4bd9edeac92a5690bbe16bafacb65f508ebfea9150600090a25050505050565b600160009054906101000a90046001600160a01b03166001600160a01b031663d0e30db0826040518263ffffffff1660e01b81526004016000604051808303818588803b158015610ce257600080fd5b505af1158015610cf6573d6000803e3d6000fd5b505050505050565b60405163a167129560e01b81526001600160a01b038481166004830152838116602483015262ffffff831660448301526000919086169063a1671295906064016020604051808303816000875af1158015610d5d573d6000803e3d6000fd5b505050506040513d601f19601f82011682018060405250810190610d8191906111b0565b95945050505050565b6000806002610d9a8460016111cd565b610da49190611017565b90508291505b816001600160a01b0316816001600160a01b03161015610def57905080600281610dd48186611017565b610dde91906111cd565b610de89190611017565b9050610daa565b50919050565b60405163f637731d60e01b81526001600160a01b03828116600483015283169063f637731d90602401600060405180830381600087803b158015610ce257600080fd5b600080600080856001600160a01b03166388316456866040518263ffffffff1660e01b8152600401610e6a91906111ec565b6080604051808303816000875af1158015610e89573d6000803e3d6000fd5b505050506040513d601f19601f82011682018060405250810190610ead91906112b0565b9299919850965090945092505050565b600060208284031215610ecf57600080fd5b5035919050565b60008060408385031215610ee957600080fd5b50508035926020909101359150565b6001600160a01b038116811461034557600080fd5b600080600080600060a08688031215610f2557600080fd5b8535610f3081610ef8565b94506020860135610f4081610ef8565b93506040860135610f5081610ef8565b92506060860135610f6081610ef8565b949793965091946080013592915050565b634e487b7160e01b600052601160045260246000fd5b808202811582820484141761036e5761036e610f71565b634e487b7160e01b600052601260045260246000fd5b600082610fc357610fc3610f9e565b500490565b8181038181111561036e5761036e610f71565b600060208284031215610fed57600080fd5b81518015158114610ffd57600080fd5b9392505050565b8082018082111561036e5761036e610f71565b60006001600160a01b0383168061103057611030610f9e565b6001600160a01b03929092169190910492915050565b6001600160a01b0381811683821681810290921691818304811482151761106f5761106f610f71565b505092915050565b6001815b60018411156110b25780850481111561109657611096610f71565b60018416156110a457908102905b60019390931c92800261107b565b935093915050565b6000826110c95750600161036e565b816110d65750600061036e565b81600181146110ec57600281146110f65761112a565b600191505061036e565b60ff84111561110757611107610f71565b6001841b91506001600160a01b0382111561112457611124610f71565b5061036e565b5060208310610133831016604e8410600b8410161715611164575081810a6001600160a01b0381111561115f5761115f610f71565b61036e565b6111766001600160a01b038484611077565b6001600160a01b0381900482111561119057611190610f71565b029392505050565b6000610ffd60ff84166001600160a01b0384166110ba565b6000602082840312156111c257600080fd5b8151610ffd81610ef8565b6001600160a01b03818116838216019081111561036e5761036e610f71565b81516001600160a01b031681526101608101602083015161121860208401826001600160a01b03169052565b50604083015161122f604084018262ffffff169052565b506060830151611244606084018260020b9052565b506080830151611259608084018260020b9052565b5060a083015160a083015260c083015160c083015260e083015160e08301526101008301516101008301526101208301516112a06101208401826001600160a01b03169052565b5061014092830151919092015290565b600080600080608085870312156112c657600080fd5b845160208601519094506fffffffffffffffffffffffffffffffff811681146112ee57600080fd5b604086015160609096015194979096509250505056fea264697066735822122019d7110b29c89d2fd7572c73635425c558d5f0fb93c9390cd968a587cc87651064736f6c634300081a0033","linkReferences":{}},"methodIdentifiers":{"buy(uint256)":"d96a094a","getAvailableToken()":"ae158211","getEthQoute(uint256)":"af31210e","getPrice()":"98d5fdca","getPriceOfAvailableTokens()":"d21b1813","getTokenQoute(uint256)":"5104291c","initialize(address,address,address,address,uint256)":"f7013ef6","sell(uint256,uint256)":"d79875eb","token()":"fc0c546a","weth()":"3fc8cef3","withdrawFees()":"476343ee"},"id":39}