{"abi":[{"type":"function","name":"buy","inputs":[{"name":"minExpected","type":"uint256","internalType":"uint256"}],"outputs":[],"stateMutability":"payable"},{"type":"function","name":"getAvailableToken","inputs":[],"outputs":[{"name":"","type":"uint256","internalType":"uint256"}],"stateMutability":"view"},{"type":"function","name":"getEthQoute","inputs":[{"name":"amount","type":"uint256","internalType":"uint256"}],"outputs":[{"name":"","type":"uint256","internalType":"uint256"}],"stateMutability":"view"},{"type":"function","name":"getPrice","inputs":[],"outputs":[{"name":"","type":"uint256","internalType":"uint256"}],"stateMutability":"view"},{"type":"function","name":"getPriceOfAvailableTokens","inputs":[],"outputs":[{"name":"","type":"uint256","internalType":"uint256"}],"stateMutability":"view"},{"type":"function","name":"getTokenQoute","inputs":[{"name":"amount","type":"uint256","internalType":"uint256"}],"outputs":[{"name":"","type":"uint256","internalType":"uint256"}],"stateMutability":"view"},{"type":"function","name":"initialize","inputs":[{"name":"_token","type":"address","internalType":"address"},{"name":"_weth","type":"address","internalType":"contract IWETH"},{"name":"_nfpm","type":"address","internalType":"address"},{"name":"_uFactory","type":"address","internalType":"address"},{"name":"_total_Trade_Volume","type":"uint256","internalType":"uint256"},{"name":"Token_Liquidity","type":"uint160","internalType":"uint160"},{"name":"Eth_Liquidity","type":"uint160","internalType":"uint160"},{"name":"total_token_supply","type":"uint256","internalType":"uint256"},{"name":"percentage_holding","type":"uint256","internalType":"uint256"},{"name":"initialprice","type":"uint64","internalType":"uint64"}],"outputs":[],"stateMutability":"nonpayable"},{"type":"function","name":"sell","inputs":[{"name":"amount","type":"uint256","internalType":"uint256"},{"name":"minExpected","type":"uint256","internalType":"uint256"}],"outputs":[],"stateMutability":"nonpayable"},{"type":"function","name":"sqrt","inputs":[{"name":"x","type":"uint160","internalType":"uint160"}],"outputs":[{"name":"y","type":"uint160","internalType":"uint160"}],"stateMutability":"pure"},{"type":"function","name":"token","inputs":[],"outputs":[{"name":"","type":"address","internalType":"contract IERC20"}],"stateMutability":"view"},{"type":"function","name":"weth","inputs":[],"outputs":[{"name":"","type":"address","internalType":"contract IWETH"}],"stateMutability":"view"},{"type":"function","name":"withdrawFees","inputs":[],"outputs":[],"stateMutability":"nonpayable"},{"type":"event","name":"AmountGathered","inputs":[{"name":"amount","type":"uint256","indexed":true,"internalType":"uint256"}],"anonymous":false},{"type":"event","name":"Buy","inputs":[{"name":"buyer","type":"address","indexed":true,"internalType":"address"},{"name":"ethAmount","type":"uint256","indexed":false,"internalType":"uint256"},{"name":"tokenAmount","type":"uint256","indexed":false,"internalType":"uint256"}],"anonymous":false},{"type":"event","name":"Sell","inputs":[{"name":"seller","type":"address","indexed":true,"internalType":"address"},{"name":"ethAmount","type":"uint256","indexed":false,"internalType":"uint256"},{"name":"tokenAmount","type":"uint256","indexed":false,"internalType":"uint256"}],"anonymous":false},{"type":"event","name":"UniswapPoolCreated","inputs":[{"name":"poolAddress","type":"address","indexed":true,"internalType":"address"}],"anonymous":false},{"type":"error","name":"MoonUpMarket__CANNOT_BUY_MORE_THAN_3_PERCENT","inputs":[]},{"type":"error","name":"MoonUpMarket__CANNOT_INITIALIZE_TWICE","inputs":[]},{"type":"error","name":"MoonUpMarket__FAILED_TRANSACTION","inputs":[]},{"type":"error","name":"MoonUpMarket__INVALID_AMOUNT","inputs":[]},{"type":"error","name":"MoonUpMarket__MARKET_CLOSED","inputs":[]}],"bytecode":{"object":"0x6080604052348015600f57600080fd5b5061141c8061001f6000396000f3fe6080604052600436106100a75760003560e01c8063af31210e11610064578063af31210e14610178578063d21b181314610198578063d79875eb146101ad578063d96a094a146101cd578063f51c94de146101e0578063fc0c546a1461020057600080fd5b80630fa4fc5f146100ac5780633fc8cef3146100e9578063476343ee146101095780635104291c1461012057806398d5fdca1461014e578063ae15821114610163575b600080fd5b3480156100b857600080fd5b506100cc6100c7366004610fe9565b610220565b6040516001600160a01b0390911681526020015b60405180910390f35b3480156100f557600080fd5b506001546100cc906001600160a01b031681565b34801561011557600080fd5b5061011e61028b565b005b34801561012c57600080fd5b5061014061013b36600461100d565b6103de565b6040519081526020016100e0565b34801561015a57600080fd5b5061014061040a565b34801561016f57600080fd5b50610140610469565b34801561018457600080fd5b5061014061019336600461100d565b61047b565b3480156101a457600080fd5b506101406104a2565b3480156101b957600080fd5b5061011e6101c8366004611026565b6104af565b61011e6101db36600461100d565b6106f2565b3480156101ec57600080fd5b5061011e6101fb366004611048565b61097b565b34801561020c57600080fd5b506000546100cc906001600160a01b031681565b6000806002610230846001611120565b61023a9190611155565b90508291505b816001600160a01b0316816001600160a01b031610156102855790508060028161026a8186611155565b6102749190611120565b61027e9190611155565b9050610240565b50919050565b600d5461010090046001600160a01b031633146102ef5760405162461bcd60e51b815260206004820152601c60248201527f4f6e6c79206f776e65722063616e20776974686472617720666565730000000060448201526064015b60405180910390fd5b600154600160a01b900460ff16156103405760405162461bcd60e51b815260206004820152601460248201527326b0b935b2ba1034b99039ba34b6361037b832b760611b60448201526064016102e6565b600d5460405160009161010090046001600160a01b03169047908381818185875af1925050503d8060008114610392576040519150601f19603f3d011682016040523d82523d6000602084013e610397565b606091505b50509050806103db5760405162461bcd60e51b815260206004820152601060248201526f7472616e73666572206661696c65642160801b60448201526064016102e6565b50565b60006103e861040a565b6103f29083611184565b61040490670de0b6b3a7640000611198565b92915050565b600b546000901561045857600354600a54600b546104329167ffffffffffffffff1690611198565b61043c9190611184565b600a54610453919067ffffffffffffffff166111af565b905090565b50600a5467ffffffffffffffff1690565b6000600b5460035461045391906111c2565b6000670de0b6b3a764000061048e61040a565b6104989084611198565b6104049190611184565b6000610453610193610469565b600154600160a01b900460ff166104d9576040516308895a6160e11b815260040160405180910390fd5b816000036104fa576040516304625b0f60e31b815260040160405180910390fd5b8160006105068261047b565b905060006103e861051883600a611198565b6105229190611184565b9050600061053082846111c2565b905084831015610553576040516302bccf3d60e01b815260040160405180910390fd5b6000546040516323b872dd60e01b8152336004820152306024820152604481018690526001600160a01b03909116906323b872dd906064016020604051808303816000875af11580156105aa573d6000803e3d6000fd5b505050506040513d601f19601f820116820180604052508101906105ce91906111ea565b5082600260008282546105e191906111c2565b9091555050336000908152600c6020526040812080548692906106059084906111c2565b9250508190555083600b600082825461061e91906111c2565b9091555050604051600090339083908381818185875af1925050503d8060008114610665576040519150601f19603f3d011682016040523d82523d6000602084013e61066a565b606091505b50509050806106ae5760405162461bcd60e51b815260206004820152601060248201526f7472616e73666572206661696c65642160801b60448201526064016102e6565b604080518581526020810187905233917fed7a144fad14804d5c249145e3e0e2b63a9eb455b76aee5bc92d711e9bba3e4a910160405180910390a250505050505050565b600154600160a01b900460ff1661071c576040516308895a6160e11b815260040160405180910390fd5b3460000361073d576040516304625b0f60e31b815260040160405180910390fd5b60006103e861074d34600a611198565b6107579190611184565b9050600061076582346111c2565b90506000610772826103de565b905080600b5460035461078591906111c2565b101561079e57600b5460035461079b91906111c2565b90505b838110156107bf576040516302bccf3d60e01b815260040160405180910390fd5b34600260008282546107d191906111af565b9250508190555080600b60008282546107ea91906111af565b9091555050336000908152600c60205260408120805483929061080e9084906111af565b9091555050600954336000908152600c6020526040902054111561084557604051635130dff360e11b815260040160405180910390fd5b60005460405163a9059cbb60e01b8152336004820152602481018390526001600160a01b039091169063a9059cbb906044016020604051808303816000875af1158015610896573d6000803e3d6000fd5b505050506040513d601f19601f820116820180604052508101906108ba91906111ea565b506108c48161047b565b3411156108e35760006108d68261047b565b6108e090346111c2565b50505b604080518381526020810183905233917f1cbc5ab135991bd2b6a4b034a04aa2aa086dac1371cb9b16b8b5e2ed6b036bed910160405180910390a2600b5460035461092e91906111c2565b600003610975576001805460ff60a01b1916905560405147907fdcfca910228ca08bb595ff3336d3a6da5b569710251eb18a9b4ceae146ab978c90600090a2610975610a71565b50505050565b600d5460ff1615156001036109a357604051633a2c37fd60e11b815260040160405180910390fd5b600080546001600160a01b03199081166001600160a01b039c8d1617909155600180546005805484169b8e169b909b17909a55600480548316998d1699909917909855600160a01b998b166001600160a81b03199099169890981798909817909555600393909355600d8054610100600160a81b03191661010033021790556006805486169288169290921790915560078054909416951694909417909155600892909255600991909155600a805467ffffffffffffffff191667ffffffffffffffff909216919091179055565b6753444835ec580000471015610ad85760405162461bcd60e51b815260206004820152602660248201527f496e73756666696369656e742062616c616e636520746f2061646420746f205560448201526506e69737761760d41b60648201526084016102e6565b610ae9674563918244f40000610da1565b600454600080546001549192610b11926001600160a01b0391821692821691166101f4610e0d565b600654600754919250600091670de0b6b3a764000091610b3d916001600160a01b039182169116611155565b610b479190611155565b90506000610b5483610e99565b9050610b608382610f0c565b6040805161016081018252600080546001600160a01b039081168352600154811660208401526101f493830193909352620d89e7196060830152620d89e86080830152600654831660a083015260075490921660c082015260e081018290526101008101829052306101208201526101408101610bde4260646111af565b905260015460055460075460405163095ea7b360e01b81526001600160a01b0392831660048201529082166024820152929350169063095ea7b3906044016020604051808303816000875af1158015610c3b573d6000803e3d6000fd5b505050506040513d601f19601f82011682018060405250810190610c5f91906111ea565b5060005460055460065460405163095ea7b360e01b81526001600160a01b039283166004820152908216602482015291169063095ea7b3906044016020604051808303816000875af1158015610cb9573d6000803e3d6000fd5b505050506040513d601f19601f82011682018060405250810190610cdd91906111ea565b50600554600090610cf7906001600160a01b031683610f4f565b50506005546040516323b872dd60e01b815230600482015260006024820152604481018490529293506001600160a01b0316916323b872dd9150606401600060405180830381600087803b158015610d4e57600080fd5b505af1158015610d62573d6000803e3d6000fd5b50506040516001600160a01b03881692507f2b1e37bc1165bf219bf005c57b4bd9edeac92a5690bbe16bafacb65f508ebfea9150600090a25050505050565b600160009054906101000a90046001600160a01b03166001600160a01b031663d0e30db0826040518263ffffffff1660e01b81526004016000604051808303818588803b158015610df157600080fd5b505af1158015610e05573d6000803e3d6000fd5b505050505050565b60405163a167129560e01b81526001600160a01b038481166004830152838116602483015262ffffff831660448301526000919086169063a1671295906064016020604051808303816000875af1158015610e6c573d6000803e3d6000fd5b505050506040513d601f19601f82011682018060405250810190610e909190611205565b95945050505050565b600080826001600160a01b0316633850c7bd6040518163ffffffff1660e01b815260040160e060405180830381865afa158015610eda573d6000803e3d6000fd5b505050506040513d601f19601f82011682018060405250810190610efe9190611234565b509498975050505050505050565b60405163f637731d60e01b81526001600160a01b03828116600483015283169063f637731d90602401600060405180830381600087803b158015610df157600080fd5b600080600080856001600160a01b03166388316456866040518263ffffffff1660e01b8152600401610f8191906112ce565b6080604051808303816000875af1158015610fa0573d6000803e3d6000fd5b505050506040513d601f19601f82011682018060405250810190610fc49190611392565b9299919850965090945092505050565b6001600160a01b03811681146103db57600080fd5b600060208284031215610ffb57600080fd5b813561100681610fd4565b9392505050565b60006020828403121561101f57600080fd5b5035919050565b6000806040838503121561103957600080fd5b50508035926020909101359150565b6000806000806000806000806000806101408b8d03121561106857600080fd5b8a3561107381610fd4565b995060208b013561108381610fd4565b985060408b013561109381610fd4565b975060608b01356110a381610fd4565b965060808b0135955060a08b01356110ba81610fd4565b945060c08b01356110ca81610fd4565b935060e08b013592506101008b013591506101208b013567ffffffffffffffff811681146110f757600080fd5b809150509295989b9194979a5092959850565b634e487b7160e01b600052601160045260246000fd5b6001600160a01b0381811683821601908111156104045761040461110a565b634e487b7160e01b600052601260045260246000fd5b60006001600160a01b0383168061116e5761116e61113f565b6001600160a01b03929092169190910492915050565b6000826111935761119361113f565b500490565b80820281158282048414176104045761040461110a565b808201808211156104045761040461110a565b818103818111156104045761040461110a565b805180151581146111e557600080fd5b919050565b6000602082840312156111fc57600080fd5b611006826111d5565b60006020828403121561121757600080fd5b815161100681610fd4565b805161ffff811681146111e557600080fd5b600080600080600080600060e0888a03121561124f57600080fd5b875161125a81610fd4565b8097505060208801518060020b811461127257600080fd5b955061128060408901611222565b945061128e60608901611222565b935061129c60808901611222565b925060a088015160ff811681146112b257600080fd5b91506112c060c089016111d5565b905092959891949750929550565b81516001600160a01b03168152610160810160208301516112fa60208401826001600160a01b03169052565b506040830151611311604084018262ffffff169052565b506060830151611326606084018260020b9052565b50608083015161133b608084018260020b9052565b5060a083015160a083015260c083015160c083015260e083015160e08301526101008301516101008301526101208301516113826101208401826001600160a01b03169052565b5061014092830151919092015290565b600080600080608085870312156113a857600080fd5b845160208601519094506fffffffffffffffffffffffffffffffff811681146113d057600080fd5b604086015160609096015194979096509250505056fea26469706673582212202ee882e4ba6e73673f9bd8aff60e99a274d5b557ae959760aeeac45540115a0164736f6c634300081a0033","linkReferences":{}},"methodIdentifiers":{"buy(uint256)":"d96a094a","getAvailableToken()":"ae158211","getEthQoute(uint256)":"af31210e","getPrice()":"98d5fdca","getPriceOfAvailableTokens()":"d21b1813","getTokenQoute(uint256)":"5104291c","initialize(address,address,address,address,uint256,uint160,uint160,uint256,uint256,uint64)":"f51c94de","sell(uint256,uint256)":"d79875eb","sqrt(uint160)":"0fa4fc5f","token()":"fc0c546a","weth()":"3fc8cef3","withdrawFees()":"476343ee"},"id":35}