{"abi":[{"type":"function","name":"buy","inputs":[{"name":"minExpected","type":"uint256","internalType":"uint256"}],"outputs":[],"stateMutability":"payable"},{"type":"function","name":"calculateToken","inputs":[{"name":"amount","type":"uint256","internalType":"uint256"}],"outputs":[{"name":"tokenAmount","type":"uint256","internalType":"uint256"}],"stateMutability":"view"},{"type":"function","name":"getAvailableToken","inputs":[],"outputs":[{"name":"","type":"uint256","internalType":"uint256"}],"stateMutability":"view"},{"type":"function","name":"getEthQoute","inputs":[{"name":"amount","type":"uint256","internalType":"uint256"}],"outputs":[{"name":"","type":"uint256","internalType":"uint256"}],"stateMutability":"view"},{"type":"function","name":"getPrice","inputs":[],"outputs":[{"name":"","type":"uint256","internalType":"uint256"}],"stateMutability":"view"},{"type":"function","name":"getPriceOfAvailableTokens","inputs":[],"outputs":[{"name":"","type":"uint256","internalType":"uint256"}],"stateMutability":"view"},{"type":"function","name":"getTokenQoute","inputs":[{"name":"amount","type":"uint256","internalType":"uint256"}],"outputs":[{"name":"","type":"uint256","internalType":"uint256"}],"stateMutability":"view"},{"type":"function","name":"initialize","inputs":[{"name":"_token","type":"address","internalType":"address"},{"name":"_weth","type":"address","internalType":"contract IWETH"},{"name":"_nfpm","type":"address","internalType":"address"},{"name":"_uFactory","type":"address","internalType":"address"},{"name":"_total_Trade_Volume","type":"uint256","internalType":"uint256"}],"outputs":[],"stateMutability":"nonpayable"},{"type":"function","name":"sell","inputs":[{"name":"amount","type":"uint256","internalType":"uint256"},{"name":"minExpected","type":"uint256","internalType":"uint256"}],"outputs":[],"stateMutability":"nonpayable"},{"type":"function","name":"token","inputs":[],"outputs":[{"name":"","type":"address","internalType":"contract IERC20"}],"stateMutability":"view"},{"type":"function","name":"weth","inputs":[],"outputs":[{"name":"","type":"address","internalType":"contract IWETH"}],"stateMutability":"view"},{"type":"function","name":"wethInContract","inputs":[],"outputs":[{"name":"","type":"uint256","internalType":"uint256"}],"stateMutability":"view"},{"type":"function","name":"withdrawFees","inputs":[],"outputs":[],"stateMutability":"nonpayable"},{"type":"event","name":"Buy","inputs":[{"name":"buyer","type":"address","indexed":true,"internalType":"address"},{"name":"ethAmount","type":"uint256","indexed":false,"internalType":"uint256"},{"name":"tokenAmount","type":"uint256","indexed":false,"internalType":"uint256"}],"anonymous":false},{"type":"event","name":"Sell","inputs":[{"name":"seller","type":"address","indexed":true,"internalType":"address"},{"name":"ethAmount","type":"uint256","indexed":false,"internalType":"uint256"},{"name":"tokenAmount","type":"uint256","indexed":false,"internalType":"uint256"}],"anonymous":false},{"type":"event","name":"UniswapPoolCreated","inputs":[{"name":"poolAddress","type":"address","indexed":true,"internalType":"address"}],"anonymous":false},{"type":"error","name":"MoonUpMarket__CANNOT_INITIALIZE_TWICE","inputs":[]},{"type":"error","name":"MoonUpMarket__FAILED_TRANSACTION","inputs":[]},{"type":"error","name":"MoonUpMarket__INVALID_AMOUNT","inputs":[]},{"type":"error","name":"MoonUpMarket__MARKET_CLOSED","inputs":[]}],"bytecode":{"object":"0x6080604052600680546001600160a01b03199081166aa56fa5b99019a5c80000001790915560078054909116674563918244f400001790556b033b2e3c9fd0803ce80000006008556a18d0bf423c03d8de000000600955348015606157600080fd5b50611382806100716000396000f3fe6080604052600436106100c25760003560e01c8063af31210e1161007f578063d96a094a11610059578063d96a094a146101c8578063ec2db92d146101db578063f7013ef6146101f0578063fc0c546a1461021057600080fd5b8063af31210e14610173578063d21b181314610193578063d79875eb146101a857600080fd5b80631b3d36de146100c75780633fc8cef3146100fa578063476343ee146101325780635104291c146100c757806398d5fdca14610149578063ae1582111461015e575b600080fd5b3480156100d357600080fd5b506100e76100e2366004610eec565b610230565b6040519081526020015b60405180910390f35b34801561010657600080fd5b5060015461011a906001600160a01b031681565b6040516001600160a01b0390911681526020016100f1565b34801561013e57600080fd5b5061014761024a565b005b34801561015557600080fd5b506100e761039d565b34801561016a57600080fd5b506003546100e7565b34801561017f57600080fd5b506100e761018e366004610eec565b6103e6565b34801561019f57600080fd5b506100e76103fa565b3480156101b457600080fd5b506101476101c3366004610f05565b610408565b6101476101d6366004610eec565b61064b565b3480156101e757600080fd5b506100e761087b565b3480156101fc57600080fd5b5061014761020b366004610f3c565b6108e8565b34801561021c57600080fd5b5060005461011a906001600160a01b031681565b600061023a61039d565b6102449083610fb6565b92915050565b600c5461010090046001600160a01b031633146102ae5760405162461bcd60e51b815260206004820152601c60248201527f4f6e6c79206f776e65722063616e20776974686472617720666565730000000060448201526064015b60405180910390fd5b600154600160a01b900460ff16156102ff5760405162461bcd60e51b815260206004820152601460248201527326b0b935b2ba1034b99039ba34b6361037b832b760611b60448201526064016102a5565b600c5460405160009161010090046001600160a01b03169047908381818185875af1925050503d8060008114610351576040519150601f19603f3d011682016040523d82523d6000602084013e610356565b606091505b505090508061039a5760405162461bcd60e51b815260206004820152601060248201526f7472616e73666572206661696c65642160801b60448201526064016102a5565b50565b600a54600090156103dc576003546401ca7f4ceb600a546103be9190610fb6565b6103c89190610fe3565b6103d7906401ca7f4ceb610ff7565b905090565b506401ca7f4ceb90565b60006103f061039d565b6102449083610fe3565b60006103d76100e260035490565b600154600160a01b900460ff16610432576040516308895a6160e11b815260040160405180910390fd5b81600003610453576040516304625b0f60e31b815260040160405180910390fd5b81600061045f82610230565b905060006103e861047183600a610fb6565b61047b9190610fe3565b90506000610489828461100a565b9050848310156104ac576040516302bccf3d60e01b815260040160405180910390fd5b6000546040516323b872dd60e01b8152336004820152306024820152604481018690526001600160a01b03909116906323b872dd906064016020604051808303816000875af1158015610503573d6000803e3d6000fd5b505050506040513d601f19601f82011682018060405250810190610527919061101d565b50826002600082825461053a919061100a565b9091555050336000908152600b60205260408120805486929061055e90849061100a565b9250508190555083600a6000828254610577919061100a565b9091555050604051600090339083908381818185875af1925050503d80600081146105be576040519150601f19603f3d011682016040523d82523d6000602084013e6105c3565b606091505b50509050806106075760405162461bcd60e51b815260206004820152601060248201526f7472616e73666572206661696c65642160801b60448201526064016102a5565b604080518581526020810187905233917fed7a144fad14804d5c249145e3e0e2b63a9eb455b76aee5bc92d711e9bba3e4a910160405180910390a250505050505050565b600154600160a01b900460ff16610675576040516308895a6160e11b815260040160405180910390fd5b34600003610696576040516304625b0f60e31b815260040160405180910390fd5b651b48eb57e00060006106b082660aa87bee53800061100a565b905060006106bd82610230565b90508060035410156107235760405162461bcd60e51b815260206004820152602960248201527f546f6b656e20416d6f756e742047726561746572207468616e20617661696c61604482015268313632902a37b5b2b760b91b60648201526084016102a5565b83811015610744576040516302bccf3d60e01b815260040160405180910390fd5b34600260008282546107569190610ff7565b9250508190555080600a600082825461076f9190610ff7565b9091555050336000908152600b602052604081208054839290610793908490610ff7565b909155505060005460405163a9059cbb60e01b8152336004820152602481018390526001600160a01b039091169063a9059cbb906044016020604051808303816000875af11580156107e9573d6000803e3d6000fd5b505050506040513d601f19601f8201168201806040525081019061080d919061101d565b50336000818152600b6020908152604091829020548251868152918201527f1cbc5ab135991bd2b6a4b034a04aa2aa086dac1371cb9b16b8b5e2ed6b036bed910160405180910390a2600354600003610875576001805460ff60a01b1916905561087561098e565b50505050565b6001546040516370a0823160e01b81523060048201526000916001600160a01b0316906370a0823190602401602060405180830381865afa1580156108c4573d6000803e3d6000fd5b505050506040513d601f19601f820116820180604052508101906103d79190611046565b600c5460ff16151560010361091057604051633a2c37fd60e11b815260040160405180910390fd5b600080546001600160a01b03199081166001600160a01b0397881617909155600180546005805484169689169690961790955560048054909216938716939093179055600160a01b939094166001600160a81b031990921691909117919091179055600355600c8054610100600160a81b0319166101003302179055565b6753444835ec5800004710156109f55760405162461bcd60e51b815260206004820152602660248201527f496e73756666696369656e742062616c616e636520746f2061646420746f205560448201526506e69737761760d41b60648201526084016102a5565b610a06674563918244f40000610cc1565b600454600080546001549192610a2e926001600160a01b0391821692821691166101f4610d2d565b600654600754919250600091610a50916001600160a01b03908116911661105f565b905060006060610a5f83610db9565b610a6a90600261108e565b610a7491906111e0565b9050610a808382610e24565b6040805161016081018252600080546001600160a01b039081168352600154811660208401526101f493830193909352620d89e7196060830152620d89e86080830152600654831660a083015260075490921660c082015260e081018290526101008101829052306101208201526101408101610afe426064610ff7565b905260015460055460075460405163095ea7b360e01b81526001600160a01b0392831660048201529082166024820152929350169063095ea7b3906044016020604051808303816000875af1158015610b5b573d6000803e3d6000fd5b505050506040513d601f19601f82011682018060405250810190610b7f919061101d565b5060005460055460065460405163095ea7b360e01b81526001600160a01b039283166004820152908216602482015291169063095ea7b3906044016020604051808303816000875af1158015610bd9573d6000803e3d6000fd5b505050506040513d601f19601f82011682018060405250810190610bfd919061101d565b50600554600090610c17906001600160a01b031683610e67565b50506005546040516323b872dd60e01b815230600482015260006024820152604481018490529293506001600160a01b0316916323b872dd9150606401600060405180830381600087803b158015610c6e57600080fd5b505af1158015610c82573d6000803e3d6000fd5b50506040516001600160a01b03881692507f2b1e37bc1165bf219bf005c57b4bd9edeac92a5690bbe16bafacb65f508ebfea9150600090a25050505050565b600160009054906101000a90046001600160a01b03166001600160a01b031663d0e30db0826040518263ffffffff1660e01b81526004016000604051808303818588803b158015610d1157600080fd5b505af1158015610d25573d6000803e3d6000fd5b505050505050565b60405163a167129560e01b81526001600160a01b038481166004830152838116602483015262ffffff831660448301526000919086169063a1671295906064016020604051808303816000875af1158015610d8c573d6000803e3d6000fd5b505050506040513d601f19601f82011682018060405250810190610db091906111f8565b95945050505050565b6000806002610dc9846001611215565b610dd3919061105f565b90508291505b816001600160a01b0316816001600160a01b03161015610e1e57905080600281610e03818661105f565b610e0d9190611215565b610e17919061105f565b9050610dd9565b50919050565b60405163f637731d60e01b81526001600160a01b03828116600483015283169063f637731d90602401600060405180830381600087803b158015610d1157600080fd5b600080600080856001600160a01b03166388316456866040518263ffffffff1660e01b8152600401610e999190611234565b6080604051808303816000875af1158015610eb8573d6000803e3d6000fd5b505050506040513d601f19601f82011682018060405250810190610edc91906112f8565b9299919850965090945092505050565b600060208284031215610efe57600080fd5b5035919050565b60008060408385031215610f1857600080fd5b50508035926020909101359150565b6001600160a01b038116811461039a57600080fd5b600080600080600060a08688031215610f5457600080fd5b8535610f5f81610f27565b94506020860135610f6f81610f27565b93506040860135610f7f81610f27565b92506060860135610f8f81610f27565b949793965091946080013592915050565b634e487b7160e01b600052601160045260246000fd5b808202811582820484141761024457610244610fa0565b634e487b7160e01b600052601260045260246000fd5b600082610ff257610ff2610fcd565b500490565b8082018082111561024457610244610fa0565b8181038181111561024457610244610fa0565b60006020828403121561102f57600080fd5b8151801515811461103f57600080fd5b9392505050565b60006020828403121561105857600080fd5b5051919050565b60006001600160a01b0383168061107857611078610fcd565b6001600160a01b03929092169190910492915050565b6001600160a01b038181168382168181029092169181830481148215176110b7576110b7610fa0565b505092915050565b6001815b60018411156110fa578085048111156110de576110de610fa0565b60018416156110ec57908102905b60019390931c9280026110c3565b935093915050565b60008261111157506001610244565b8161111e57506000610244565b8160018114611134576002811461113e57611172565b6001915050610244565b60ff84111561114f5761114f610fa0565b6001841b91506001600160a01b0382111561116c5761116c610fa0565b50610244565b5060208310610133831016604e8410600b84101617156111ac575081810a6001600160a01b038111156111a7576111a7610fa0565b610244565b6111be6001600160a01b0384846110bf565b6001600160a01b038190048211156111d8576111d8610fa0565b029392505050565b600061103f60ff84166001600160a01b038416611102565b60006020828403121561120a57600080fd5b815161103f81610f27565b6001600160a01b03818116838216019081111561024457610244610fa0565b81516001600160a01b031681526101608101602083015161126060208401826001600160a01b03169052565b506040830151611277604084018262ffffff169052565b50606083015161128c606084018260020b9052565b5060808301516112a1608084018260020b9052565b5060a083015160a083015260c083015160c083015260e083015160e08301526101008301516101008301526101208301516112e86101208401826001600160a01b03169052565b5061014092830151919092015290565b6000806000806080858703121561130e57600080fd5b845160208601519094506fffffffffffffffffffffffffffffffff8116811461133657600080fd5b604086015160609096015194979096509250505056fea264697066735822122012f6c9875820483097efc4100688936054dfd418471a059c202747292c8a1bd564736f6c634300081a0033","linkReferences":{}},"methodIdentifiers":{"buy(uint256)":"d96a094a","calculateToken(uint256)":"1b3d36de","getAvailableToken()":"ae158211","getEthQoute(uint256)":"af31210e","getPrice()":"98d5fdca","getPriceOfAvailableTokens()":"d21b1813","getTokenQoute(uint256)":"5104291c","initialize(address,address,address,address,uint256)":"f7013ef6","sell(uint256,uint256)":"d79875eb","token()":"fc0c546a","weth()":"3fc8cef3","wethInContract()":"ec2db92d","withdrawFees()":"476343ee"},"id":36}